{
  "_format": "hh-sol-artifact-1",
  "contractName": "InfiniteQuiz",
  "sourceName": "contracts/InfiniteQuiz.sol",
  "abi": [
    {
      "inputs": [],
      "name": "commitPhase",
      "outputs": [
        {
          "internalType": "bool",
          "name": "",
          "type": "bool"
        }
      ],
      "stateMutability": "view",
      "type": "function"
    },
    {
      "inputs": [
        {
          "internalType": "address",
          "name": "",
          "type": "address"
        }
      ],
      "name": "players",
      "outputs": [
        {
          "internalType": "bytes32",
          "name": "commitHash",
          "type": "bytes32"
        },
        {
          "internalType": "bool",
          "name": "committed",
          "type": "bool"
        },
        {
          "internalType": "bool",
          "name": "revealed",
          "type": "bool"
        },
        {
          "internalType": "string",
          "name": "salt",
          "type": "string"
        }
      ],
      "stateMutability": "view",
      "type": "function"
    },
    {
      "inputs": [
        {
          "internalType": "string[5]",
          "name": "answers",
          "type": "string[5]"
        },
        {
          "internalType": "string",
          "name": "salt",
          "type": "string"
        }
      ],
      "name": "revealAnswers",
      "outputs": [],
      "stateMutability": "nonpayable",
      "type": "function"
    },
    {
      "inputs": [],
      "name": "revealPhase",
      "outputs": [
        {
          "internalType": "bool",
          "name": "",
          "type": "bool"
        }
      ],
      "stateMutability": "view",
      "type": "function"
    },
    {
      "inputs": [],
      "name": "startRevealPhase",
      "outputs": [],
      "stateMutability": "nonpayable",
      "type": "function"
    },
    {
      "inputs": [
        {
          "internalType": "bytes32",
          "name": "commitHash",
          "type": "bytes32"
        }
      ],
      "name": "submitCommit",
      "outputs": [],
      "stateMutability": "nonpayable",
      "type": "function"
    }
  ],
  "bytecode": "0x6080806040523461002357600161ffff198154161760015561091490816100298239f35b600080fdfe608080604052600436101561001357600080fd5b60003560e01c90816362995898146106e7575080636dba3ef1146106c1578063c6fd5d4e1461065d578063cc5d60031461063a578063e2eb41ff146104e05763febdc3d71461006157600080fd5b346103f25760403660031901126103f25767ffffffffffffffff600435116103f2573660a460043501116103f25767ffffffffffffffff602435116103f2573660236024350112156103f25767ffffffffffffffff60243560040135116103f25736602480356004013581350101116103f25760ff60015460081c161561049b573360005260006020526040600020600181015460ff8116156104665760ff8160081c1661042e57600435600401356022196004353603018112156103f2576004350167ffffffffffffffff6004820135116103f2576004810135360360248201136103f2576004356024810135903603602219018112156103f2576004350167ffffffffffffffff6004820135116103f2576004810135360360248201136103f2576004356044810135903603602219018112156103f257600435019067ffffffffffffffff6004830135116103f2576004820135360360248301136103f2576022196004353603016064600435013512156103f25767ffffffffffffffff600480356064810135010135116103f257600480356064810135019081013536036024909101136103f2576022196004353603016084600435013512156103f25767ffffffffffffffff600480356084810135010135116103f257600480356084810135019081013536036024909101136103f25760049081806040519581810135602482016020890137013585019160208301600081528282013590602483019037013501916020830160008152828201359060248301903701350160208101600081526004606481350135813501013590602460646004350135600435010190376004606481350135813501013501602081016000815260046084813501358135010135906024608460043501356004350101903760046084813501358135010135019061033e602082818501946000865260248035019586602435600401359137602435600401350160008382015203808452018261079a565b602081519101208354036103f95761010061036f9261ff0019161760018401556024356004013590600784016107d2565b60005b6005808210156103f757816004911b81350101356022196004353603018112156103f2576004350160048101359067ffffffffffffffff82116103f2576024019080360382136103f2576103cb916002848601016107d2565b60001981146103dc57600101610372565b634e487b7160e01b600052601160045260246000fd5b600080fd5b005b60405162461bcd60e51b815260206004820152600d60248201526c090c2e6d040dad2e6dac2e8c6d609b1b6044820152606490fd5b60405162461bcd60e51b815260206004820152601060248201526f105b1c9958591e481c995d99585b195960821b6044820152606490fd5b60405162461bcd60e51b815260206004820152600d60248201526c139bdd0818dbdb5b5a5d1d1959609a1b6044820152606490fd5b60405162461bcd60e51b815260206004820152601760248201527f52657665616c207068617365206e6f74206163746976650000000000000000006044820152606490fd5b346103f2576020806003193601126103f2576004356001600160a01b038116908190036103f257600052600081526040600020805491600191600783820154910160405193849160009181549161053683610760565b928386528783821691826000146106145750506001146105d2575b505050906105649195939295038461079a565b60ff604051948593845281811615158385015260081c1615156040830152608060608301528251908160808401526000935b8285106105b957505060a092506000838284010152601f80199101168101030190f35b84810182015186860160a0015293810193859350610596565b86935060009291925282600020916000925b8284106105fc575050508201018161056460ff610551565b8054848a0186015288955087949093019281016105e4565b60ff19168782015293151560051b86019093019350849250610564915060ff9050610551565b346103f25760003660031901126103f257602060ff600154166040519015158152f35b346103f25760003660031901126103f25760015460ff8116156106885761ffff191661010017600155005b60405162461bcd60e51b8152602060048201526011602482015270105b1c9958591e481a5b881c995d99585b607a1b6044820152606490fd5b346103f25760003660031901126103f257602060ff60015460081c166040519015158152f35b346103f25760203660031901126103f25760ff60015416156107295733600052600060205260016040600020600435815501600160ff19825416179055600080f35b62461bcd60e51b815260206004820152601260248201527110dbdb5b5a5d081c1a185cd948195b99195960721b6044820152606490fd5b90600182811c92168015610790575b602083101461077a57565b634e487b7160e01b600052602260045260246000fd5b91607f169161076f565b90601f8019910116810190811067ffffffffffffffff8211176107bc57604052565b634e487b7160e01b600052604160045260246000fd5b90929167ffffffffffffffff81116107bc576107ee8254610760565b601f8111610896575b506000601f82116001146108325781929394600092610827575b50508160011b916000199060031b1c1916179055565b013590503880610811565b601f198216948382526020918281209281905b88821061087e57505083600195969710610864575b505050811b019055565b0135600019600384901b60f8161c1916905538808061085a565b80600184968294958701358155019501920190610845565b600083815260208120601f840160051c810192602085106108d4575b601f0160051c01915b8281106108c95750506107f7565b8181556001016108bb565b90925082906108b256fea2646970667358221220ac3042a4ca48e2c40e1aca2afccef97d1a6daecfe4ec5f2c14198ff58f70702064736f6c63430008130033",
  "linkReferences": {},
  "deployedLinkReferences": {}
}