{"contracts/InfiniteQuiz.sol":{"InfiniteQuiz":{"abi":[{"inputs":[],"name":"commitPhase","outputs":[{"internalType":"bool","name":"","type":"bool"}],"stateMutability":"view","type":"function"},{"inputs":[{"internalType":"address","name":"","type":"address"}],"name":"players","outputs":[{"internalType":"bytes32","name":"commitHash","type":"bytes32"},{"internalType":"bool","name":"committed","type":"bool"},{"internalType":"bool","name":"revealed","type":"bool"},{"internalType":"string","name":"salt","type":"string"}],"stateMutability":"view","type":"function"},{"inputs":[{"internalType":"string[5]","name":"answers","type":"string[5]"},{"internalType":"string","name":"salt","type":"string"}],"name":"revealAnswers","outputs":[],"stateMutability":"nonpayable","type":"function"},{"inputs":[],"name":"revealPhase","outputs":[{"internalType":"bool","name":"","type":"bool"}],"stateMutability":"view","type":"function"},{"inputs":[],"name":"startRevealPhase","outputs":[],"stateMutability":"nonpayable","type":"function"},{"inputs":[{"internalType":"bytes32","name":"commitHash","type":"bytes32"}],"name":"submitCommit","outputs":[],"stateMutability":"nonpayable","type":"function"}],"evm":{"bytecode":{"linkReferences":{},"object":"6080806040523461002357600161ffff198154161760015561091490816100298239f35b600080fdfe608080604052600436101561001357600080fd5b60003560e01c90816362995898146106e7575080636dba3ef1146106c1578063c6fd5d4e1461065d578063cc5d60031461063a578063e2eb41ff146104e05763febdc3d71461006157600080fd5b346103f25760403660031901126103f25767ffffffffffffffff600435116103f2573660a460043501116103f25767ffffffffffffffff602435116103f2573660236024350112156103f25767ffffffffffffffff60243560040135116103f25736602480356004013581350101116103f25760ff60015460081c161561049b573360005260006020526040600020600181015460ff8116156104665760ff8160081c1661042e57600435600401356022196004353603018112156103f2576004350167ffffffffffffffff6004820135116103f2576004810135360360248201136103f2576004356024810135903603602219018112156103f2576004350167ffffffffffffffff6004820135116103f2576004810135360360248201136103f2576004356044810135903603602219018112156103f257600435019067ffffffffffffffff6004830135116103f2576004820135360360248301136103f2576022196004353603016064600435013512156103f25767ffffffffffffffff600480356064810135010135116103f257600480356064810135019081013536036024909101136103f2576022196004353603016084600435013512156103f25767ffffffffffffffff600480356084810135010135116103f257600480356084810135019081013536036024909101136103f25760049081806040519581810135602482016020890137013585019160208301600081528282013590602483019037013501916020830160008152828201359060248301903701350160208101600081526004606481350135813501013590602460646004350135600435010190376004606481350135813501013501602081016000815260046084813501358135010135906024608460043501356004350101903760046084813501358135010135019061033e602082818501946000865260248035019586602435600401359137602435600401350160008382015203808452018261079a565b602081519101208354036103f95761010061036f9261ff0019161760018401556024356004013590600784016107d2565b60005b6005808210156103f757816004911b81350101356022196004353603018112156103f2576004350160048101359067ffffffffffffffff82116103f2576024019080360382136103f2576103cb916002848601016107d2565b60001981146103dc57600101610372565b634e487b7160e01b600052601160045260246000fd5b600080fd5b005b60405162461bcd60e51b815260206004820152600d60248201526c090c2e6d040dad2e6dac2e8c6d609b1b6044820152606490fd5b60405162461bcd60e51b815260206004820152601060248201526f105b1c9958591e481c995d99585b195960821b6044820152606490fd5b60405162461bcd60e51b815260206004820152600d60248201526c139bdd0818dbdb5b5a5d1d1959609a1b6044820152606490fd5b60405162461bcd60e51b815260206004820152601760248201527f52657665616c207068617365206e6f74206163746976650000000000000000006044820152606490fd5b346103f2576020806003193601126103f2576004356001600160a01b038116908190036103f257600052600081526040600020805491600191600783820154910160405193849160009181549161053683610760565b928386528783821691826000146106145750506001146105d2575b505050906105649195939295038461079a565b60ff604051948593845281811615158385015260081c1615156040830152608060608301528251908160808401526000935b8285106105b957505060a092506000838284010152601f80199101168101030190f35b84810182015186860160a0015293810193859350610596565b86935060009291925282600020916000925b8284106105fc575050508201018161056460ff610551565b8054848a0186015288955087949093019281016105e4565b60ff19168782015293151560051b86019093019350849250610564915060ff9050610551565b346103f25760003660031901126103f257602060ff600154166040519015158152f35b346103f25760003660031901126103f25760015460ff8116156106885761ffff191661010017600155005b60405162461bcd60e51b8152602060048201526011602482015270105b1c9958591e481a5b881c995d99585b607a1b6044820152606490fd5b346103f25760003660031901126103f257602060ff60015460081c166040519015158152f35b346103f25760203660031901126103f25760ff60015416156107295733600052600060205260016040600020600435815501600160ff19825416179055600080f35b62461bcd60e51b815260206004820152601260248201527110dbdb5b5a5d081c1a185cd948195b99195960721b6044820152606490fd5b90600182811c92168015610790575b602083101461077a57565b634e487b7160e01b600052602260045260246000fd5b91607f169161076f565b90601f8019910116810190811067ffffffffffffffff8211176107bc57604052565b634e487b7160e01b600052604160045260246000fd5b90929167ffffffffffffffff81116107bc576107ee8254610760565b601f8111610896575b506000601f82116001146108325781929394600092610827575b50508160011b916000199060031b1c1916179055565b013590503880610811565b601f198216948382526020918281209281905b88821061087e57505083600195969710610864575b505050811b019055565b0135600019600384901b60f8161c1916905538808061085a565b80600184968294958701358155019501920190610845565b600083815260208120601f840160051c810192602085106108d4575b601f0160051c01915b8281106108c95750506107f7565b8181556001016108bb565b90925082906108b256fea2646970667358221220ac3042a4ca48e2c40e1aca2afccef97d1a6daecfe4ec5f2c14198ff58f70702064736f6c63430008130033","opcodes":"PUSH1 0x80 DUP1 PUSH1 0x40 MSTORE CALLVALUE PUSH2 0x23 JUMPI PUSH1 0x1 PUSH2 0xFFFF NOT DUP2 SLOAD AND OR PUSH1 0x1 SSTORE PUSH2 0x914 SWAP1 DUP2 PUSH2 0x29 DUP3 CODECOPY RETURN JUMPDEST PUSH1 0x0 DUP1 REVERT INVALID PUSH1 0x80 DUP1 PUSH1 0x40 MSTORE PUSH1 0x4 CALLDATASIZE LT ISZERO PUSH2 0x13 JUMPI PUSH1 0x0 DUP1 REVERT JUMPDEST PUSH1 0x0 CALLDATALOAD PUSH1 0xE0 SHR SWAP1 DUP2 PUSH4 0x62995898 EQ PUSH2 0x6E7 JUMPI POP DUP1 PUSH4 0x6DBA3EF1 EQ PUSH2 0x6C1 JUMPI DUP1 PUSH4 0xC6FD5D4E EQ PUSH2 0x65D JUMPI DUP1 PUSH4 0xCC5D6003 EQ PUSH2 0x63A JUMPI DUP1 PUSH4 0xE2EB41FF EQ PUSH2 0x4E0 JUMPI PUSH4 0xFEBDC3D7 EQ PUSH2 0x61 JUMPI PUSH1 0x0 DUP1 REVERT JUMPDEST CALLVALUE PUSH2 0x3F2 JUMPI PUSH1 0x40 CALLDATASIZE PUSH1 0x3 NOT ADD SLT PUSH2 0x3F2 JUMPI PUSH8 0xFFFFFFFFFFFFFFFF PUSH1 0x4 CALLDATALOAD GT PUSH2 0x3F2 JUMPI CALLDATASIZE PUSH1 0xA4 PUSH1 0x4 CALLDATALOAD ADD GT PUSH2 0x3F2 JUMPI PUSH8 0xFFFFFFFFFFFFFFFF PUSH1 0x24 CALLDATALOAD GT PUSH2 0x3F2 JUMPI CALLDATASIZE PUSH1 0x23 PUSH1 0x24 CALLDATALOAD ADD SLT ISZERO PUSH2 0x3F2 JUMPI PUSH8 0xFFFFFFFFFFFFFFFF PUSH1 0x24 CALLDATALOAD PUSH1 0x4 ADD CALLDATALOAD GT PUSH2 0x3F2 JUMPI CALLDATASIZE PUSH1 0x24 DUP1 CALLDATALOAD PUSH1 0x4 ADD CALLDATALOAD DUP2 CALLDATALOAD ADD ADD GT PUSH2 0x3F2 JUMPI PUSH1 0xFF PUSH1 0x1 SLOAD PUSH1 0x8 SHR AND ISZERO PUSH2 0x49B JUMPI CALLER PUSH1 0x0 MSTORE PUSH1 0x0 PUSH1 0x20 MSTORE PUSH1 0x40 PUSH1 0x0 KECCAK256 PUSH1 0x1 DUP2 ADD SLOAD PUSH1 0xFF DUP2 AND ISZERO PUSH2 0x466 JUMPI PUSH1 0xFF DUP2 PUSH1 0x8 SHR AND PUSH2 0x42E JUMPI PUSH1 0x4 CALLDATALOAD PUSH1 0x4 ADD CALLDATALOAD PUSH1 0x22 NOT PUSH1 0x4 CALLDATALOAD CALLDATASIZE SUB ADD DUP2 SLT ISZERO PUSH2 0x3F2 JUMPI PUSH1 0x4 CALLDATALOAD ADD PUSH8 0xFFFFFFFFFFFFFFFF PUSH1 0x4 DUP3 ADD CALLDATALOAD GT PUSH2 0x3F2 JUMPI PUSH1 0x4 DUP2 ADD CALLDATALOAD CALLDATASIZE SUB PUSH1 0x24 DUP3 ADD SGT PUSH2 0x3F2 JUMPI PUSH1 0x4 CALLDATALOAD PUSH1 0x24 DUP2 ADD CALLDATALOAD SWAP1 CALLDATASIZE SUB PUSH1 0x22 NOT ADD DUP2 SLT ISZERO PUSH2 0x3F2 JUMPI PUSH1 0x4 CALLDATALOAD ADD PUSH8 0xFFFFFFFFFFFFFFFF PUSH1 0x4 DUP3 ADD CALLDATALOAD GT PUSH2 0x3F2 JUMPI PUSH1 0x4 DUP2 ADD CALLDATALOAD CALLDATASIZE SUB PUSH1 0x24 DUP3 ADD SGT PUSH2 0x3F2 JUMPI PUSH1 0x4 CALLDATALOAD PUSH1 0x44 DUP2 ADD CALLDATALOAD SWAP1 CALLDATASIZE SUB PUSH1 0x22 NOT ADD DUP2 SLT ISZERO PUSH2 0x3F2 JUMPI PUSH1 0x4 CALLDATALOAD ADD SWAP1 PUSH8 0xFFFFFFFFFFFFFFFF PUSH1 0x4 DUP4 ADD CALLDATALOAD GT PUSH2 0x3F2 JUMPI PUSH1 0x4 DUP3 ADD CALLDATALOAD CALLDATASIZE SUB PUSH1 0x24 DUP4 ADD SGT PUSH2 0x3F2 JUMPI PUSH1 0x22 NOT PUSH1 0x4 CALLDATALOAD CALLDATASIZE SUB ADD PUSH1 0x64 PUSH1 0x4 CALLDATALOAD ADD CALLDATALOAD SLT ISZERO PUSH2 0x3F2 JUMPI PUSH8 0xFFFFFFFFFFFFFFFF PUSH1 0x4 DUP1 CALLDATALOAD PUSH1 0x64 DUP2 ADD CALLDATALOAD ADD ADD CALLDATALOAD GT PUSH2 0x3F2 JUMPI PUSH1 0x4 DUP1 CALLDATALOAD PUSH1 0x64 DUP2 ADD CALLDATALOAD ADD SWAP1 DUP2 ADD CALLDATALOAD CALLDATASIZE SUB PUSH1 0x24 SWAP1 SWAP2 ADD SGT PUSH2 0x3F2 JUMPI PUSH1 0x22 NOT PUSH1 0x4 CALLDATALOAD CALLDATASIZE SUB ADD PUSH1 0x84 PUSH1 0x4 CALLDATALOAD ADD CALLDATALOAD SLT ISZERO PUSH2 0x3F2 JUMPI PUSH8 0xFFFFFFFFFFFFFFFF PUSH1 0x4 DUP1 CALLDATALOAD PUSH1 0x84 DUP2 ADD CALLDATALOAD ADD ADD CALLDATALOAD GT PUSH2 0x3F2 JUMPI PUSH1 0x4 DUP1 CALLDATALOAD PUSH1 0x84 DUP2 ADD CALLDATALOAD ADD SWAP1 DUP2 ADD CALLDATALOAD CALLDATASIZE SUB PUSH1 0x24 SWAP1 SWAP2 ADD SGT PUSH2 0x3F2 JUMPI PUSH1 0x4 SWAP1 DUP2 DUP1 PUSH1 0x40 MLOAD SWAP6 DUP2 DUP2 ADD CALLDATALOAD PUSH1 0x24 DUP3 ADD PUSH1 0x20 DUP10 ADD CALLDATACOPY ADD CALLDATALOAD DUP6 ADD SWAP2 PUSH1 0x20 DUP4 ADD PUSH1 0x0 DUP2 MSTORE DUP3 DUP3 ADD CALLDATALOAD SWAP1 PUSH1 0x24 DUP4 ADD SWAP1 CALLDATACOPY ADD CALLDATALOAD ADD SWAP2 PUSH1 0x20 DUP4 ADD PUSH1 0x0 DUP2 MSTORE DUP3 DUP3 ADD CALLDATALOAD SWAP1 PUSH1 0x24 DUP4 ADD SWAP1 CALLDATACOPY ADD CALLDATALOAD ADD PUSH1 0x20 DUP2 ADD PUSH1 0x0 DUP2 MSTORE PUSH1 0x4 PUSH1 0x64 DUP2 CALLDATALOAD ADD CALLDATALOAD DUP2 CALLDATALOAD ADD ADD CALLDATALOAD SWAP1 PUSH1 0x24 PUSH1 0x64 PUSH1 0x4 CALLDATALOAD ADD CALLDATALOAD PUSH1 0x4 CALLDATALOAD ADD ADD SWAP1 CALLDATACOPY PUSH1 0x4 PUSH1 0x64 DUP2 CALLDATALOAD ADD CALLDATALOAD DUP2 CALLDATALOAD ADD ADD CALLDATALOAD ADD PUSH1 0x20 DUP2 ADD PUSH1 0x0 DUP2 MSTORE PUSH1 0x4 PUSH1 0x84 DUP2 CALLDATALOAD ADD CALLDATALOAD DUP2 CALLDATALOAD ADD ADD CALLDATALOAD SWAP1 PUSH1 0x24 PUSH1 0x84 PUSH1 0x4 CALLDATALOAD ADD CALLDATALOAD PUSH1 0x4 CALLDATALOAD ADD ADD SWAP1 CALLDATACOPY PUSH1 0x4 PUSH1 0x84 DUP2 CALLDATALOAD ADD CALLDATALOAD DUP2 CALLDATALOAD ADD ADD CALLDATALOAD ADD SWAP1 PUSH2 0x33E PUSH1 0x20 DUP3 DUP2 DUP6 ADD SWAP5 PUSH1 0x0 DUP7 MSTORE PUSH1 0x24 DUP1 CALLDATALOAD ADD SWAP6 DUP7 PUSH1 0x24 CALLDATALOAD PUSH1 0x4 ADD CALLDATALOAD SWAP2 CALLDATACOPY PUSH1 0x24 CALLDATALOAD PUSH1 0x4 ADD CALLDATALOAD ADD PUSH1 0x0 DUP4 DUP3 ADD MSTORE SUB DUP1 DUP5 MSTORE ADD DUP3 PUSH2 0x79A JUMP JUMPDEST PUSH1 0x20 DUP2 MLOAD SWAP2 ADD KECCAK256 DUP4 SLOAD SUB PUSH2 0x3F9 JUMPI PUSH2 0x100 PUSH2 0x36F SWAP3 PUSH2 0xFF00 NOT AND OR PUSH1 0x1 DUP5 ADD SSTORE PUSH1 0x24 CALLDATALOAD PUSH1 0x4 ADD CALLDATALOAD SWAP1 PUSH1 0x7 DUP5 ADD PUSH2 0x7D2 JUMP JUMPDEST PUSH1 0x0 JUMPDEST PUSH1 0x5 DUP1 DUP3 LT ISZERO PUSH2 0x3F7 JUMPI DUP2 PUSH1 0x4 SWAP2 SHL DUP2 CALLDATALOAD ADD ADD CALLDATALOAD PUSH1 0x22 NOT PUSH1 0x4 CALLDATALOAD CALLDATASIZE SUB ADD DUP2 SLT ISZERO PUSH2 0x3F2 JUMPI PUSH1 0x4 CALLDATALOAD ADD PUSH1 0x4 DUP2 ADD CALLDATALOAD SWAP1 PUSH8 0xFFFFFFFFFFFFFFFF DUP3 GT PUSH2 0x3F2 JUMPI PUSH1 0x24 ADD SWAP1 DUP1 CALLDATASIZE SUB DUP3 SGT PUSH2 0x3F2 JUMPI PUSH2 0x3CB SWAP2 PUSH1 0x2 DUP5 DUP7 ADD ADD PUSH2 0x7D2 JUMP JUMPDEST PUSH1 0x0 NOT DUP2 EQ PUSH2 0x3DC JUMPI PUSH1 0x1 ADD PUSH2 0x372 JUMP JUMPDEST PUSH4 0x4E487B71 PUSH1 0xE0 SHL PUSH1 0x0 MSTORE PUSH1 0x11 PUSH1 0x4 MSTORE PUSH1 0x24 PUSH1 0x0 REVERT JUMPDEST PUSH1 0x0 DUP1 REVERT JUMPDEST STOP JUMPDEST PUSH1 0x40 MLOAD PUSH3 0x461BCD PUSH1 0xE5 SHL DUP2 MSTORE PUSH1 0x20 PUSH1 0x4 DUP3 ADD MSTORE PUSH1 0xD PUSH1 0x24 DUP3 ADD MSTORE PUSH13 0x90C2E6D040DAD2E6DAC2E8C6D PUSH1 0x9B SHL PUSH1 0x44 DUP3 ADD MSTORE PUSH1 0x64 SWAP1 REVERT JUMPDEST PUSH1 0x40 MLOAD PUSH3 0x461BCD PUSH1 0xE5 SHL DUP2 MSTORE PUSH1 0x20 PUSH1 0x4 DUP3 ADD MSTORE PUSH1 0x10 PUSH1 0x24 DUP3 ADD MSTORE PUSH16 0x105B1C9958591E481C995D99585B1959 PUSH1 0x82 SHL PUSH1 0x44 DUP3 ADD MSTORE PUSH1 0x64 SWAP1 REVERT JUMPDEST PUSH1 0x40 MLOAD PUSH3 0x461BCD PUSH1 0xE5 SHL DUP2 MSTORE PUSH1 0x20 PUSH1 0x4 DUP3 ADD MSTORE PUSH1 0xD PUSH1 0x24 DUP3 ADD MSTORE PUSH13 0x139BDD0818DBDB5B5A5D1D1959 PUSH1 0x9A SHL PUSH1 0x44 DUP3 ADD MSTORE PUSH1 0x64 SWAP1 REVERT JUMPDEST PUSH1 0x40 MLOAD PUSH3 0x461BCD PUSH1 0xE5 SHL DUP2 MSTORE PUSH1 0x20 PUSH1 0x4 DUP3 ADD MSTORE PUSH1 0x17 PUSH1 0x24 DUP3 ADD MSTORE PUSH32 0x52657665616C207068617365206E6F7420616374697665000000000000000000 PUSH1 0x44 DUP3 ADD MSTORE PUSH1 0x64 SWAP1 REVERT JUMPDEST CALLVALUE PUSH2 0x3F2 JUMPI PUSH1 0x20 DUP1 PUSH1 0x3 NOT CALLDATASIZE ADD SLT PUSH2 0x3F2 JUMPI PUSH1 0x4 CALLDATALOAD PUSH1 0x1 PUSH1 0x1 PUSH1 0xA0 SHL SUB DUP2 AND SWAP1 DUP2 SWAP1 SUB PUSH2 0x3F2 JUMPI PUSH1 0x0 MSTORE PUSH1 0x0 DUP2 MSTORE PUSH1 0x40 PUSH1 0x0 KECCAK256 DUP1 SLOAD SWAP2 PUSH1 0x1 SWAP2 PUSH1 0x7 DUP4 DUP3 ADD SLOAD SWAP2 ADD PUSH1 0x40 MLOAD SWAP4 DUP5 SWAP2 PUSH1 0x0 SWAP2 DUP2 SLOAD SWAP2 PUSH2 0x536 DUP4 PUSH2 0x760 JUMP JUMPDEST SWAP3 DUP4 DUP7 MSTORE DUP8 DUP4 DUP3 AND SWAP2 DUP3 PUSH1 0x0 EQ PUSH2 0x614 JUMPI POP POP PUSH1 0x1 EQ PUSH2 0x5D2 JUMPI JUMPDEST POP POP POP SWAP1 PUSH2 0x564 SWAP2 SWAP6 SWAP4 SWAP3 SWAP6 SUB DUP5 PUSH2 0x79A JUMP JUMPDEST PUSH1 0xFF PUSH1 0x40 MLOAD SWAP5 DUP6 SWAP4 DUP5 MSTORE DUP2 DUP2 AND ISZERO ISZERO DUP4 DUP6 ADD MSTORE PUSH1 0x8 SHR AND ISZERO ISZERO PUSH1 0x40 DUP4 ADD MSTORE PUSH1 0x80 PUSH1 0x60 DUP4 ADD MSTORE DUP3 MLOAD SWAP1 DUP2 PUSH1 0x80 DUP5 ADD MSTORE PUSH1 0x0 SWAP4 JUMPDEST DUP3 DUP6 LT PUSH2 0x5B9 JUMPI POP POP PUSH1 0xA0 SWAP3 POP PUSH1 0x0 DUP4 DUP3 DUP5 ADD ADD MSTORE PUSH1 0x1F DUP1 NOT SWAP2 ADD AND DUP2 ADD SUB ADD SWAP1 RETURN JUMPDEST DUP5 DUP2 ADD DUP3 ADD MLOAD DUP7 DUP7 ADD PUSH1 0xA0 ADD MSTORE SWAP4 DUP2 ADD SWAP4 DUP6 SWAP4 POP PUSH2 0x596 JUMP JUMPDEST DUP7 SWAP4 POP PUSH1 0x0 SWAP3 SWAP2 SWAP3 MSTORE DUP3 PUSH1 0x0 KECCAK256 SWAP2 PUSH1 0x0 SWAP3 JUMPDEST DUP3 DUP5 LT PUSH2 0x5FC JUMPI POP POP POP DUP3 ADD ADD DUP2 PUSH2 0x564 PUSH1 0xFF PUSH2 0x551 JUMP JUMPDEST DUP1 SLOAD DUP5 DUP11 ADD DUP7 ADD MSTORE DUP9 SWAP6 POP DUP8 SWAP5 SWAP1 SWAP4 ADD SWAP3 DUP2 ADD PUSH2 0x5E4 JUMP JUMPDEST PUSH1 0xFF NOT AND DUP8 DUP3 ADD MSTORE SWAP4 ISZERO ISZERO PUSH1 0x5 SHL DUP7 ADD SWAP1 SWAP4 ADD SWAP4 POP DUP5 SWAP3 POP PUSH2 0x564 SWAP2 POP PUSH1 0xFF SWAP1 POP PUSH2 0x551 JUMP JUMPDEST CALLVALUE PUSH2 0x3F2 JUMPI PUSH1 0x0 CALLDATASIZE PUSH1 0x3 NOT ADD SLT PUSH2 0x3F2 JUMPI PUSH1 0x20 PUSH1 0xFF PUSH1 0x1 SLOAD AND PUSH1 0x40 MLOAD SWAP1 ISZERO ISZERO DUP2 MSTORE RETURN JUMPDEST CALLVALUE PUSH2 0x3F2 JUMPI PUSH1 0x0 CALLDATASIZE PUSH1 0x3 NOT ADD SLT PUSH2 0x3F2 JUMPI PUSH1 0x1 SLOAD PUSH1 0xFF DUP2 AND ISZERO PUSH2 0x688 JUMPI PUSH2 0xFFFF NOT AND PUSH2 0x100 OR PUSH1 0x1 SSTORE STOP JUMPDEST PUSH1 0x40 MLOAD PUSH3 0x461BCD PUSH1 0xE5 SHL DUP2 MSTORE PUSH1 0x20 PUSH1 0x4 DUP3 ADD MSTORE PUSH1 0x11 PUSH1 0x24 DUP3 ADD MSTORE PUSH17 0x105B1C9958591E481A5B881C995D99585B PUSH1 0x7A SHL PUSH1 0x44 DUP3 ADD MSTORE PUSH1 0x64 SWAP1 REVERT JUMPDEST CALLVALUE PUSH2 0x3F2 JUMPI PUSH1 0x0 CALLDATASIZE PUSH1 0x3 NOT ADD SLT PUSH2 0x3F2 JUMPI PUSH1 0x20 PUSH1 0xFF PUSH1 0x1 SLOAD PUSH1 0x8 SHR AND PUSH1 0x40 MLOAD SWAP1 ISZERO ISZERO DUP2 MSTORE RETURN JUMPDEST CALLVALUE PUSH2 0x3F2 JUMPI PUSH1 0x20 CALLDATASIZE PUSH1 0x3 NOT ADD SLT PUSH2 0x3F2 JUMPI PUSH1 0xFF PUSH1 0x1 SLOAD AND ISZERO PUSH2 0x729 JUMPI CALLER PUSH1 0x0 MSTORE PUSH1 0x0 PUSH1 0x20 MSTORE PUSH1 0x1 PUSH1 0x40 PUSH1 0x0 KECCAK256 PUSH1 0x4 CALLDATALOAD DUP2 SSTORE ADD PUSH1 0x1 PUSH1 0xFF NOT DUP3 SLOAD AND OR SWAP1 SSTORE PUSH1 0x0 DUP1 RETURN JUMPDEST PUSH3 0x461BCD PUSH1 0xE5 SHL DUP2 MSTORE PUSH1 0x20 PUSH1 0x4 DUP3 ADD MSTORE PUSH1 0x12 PUSH1 0x24 DUP3 ADD MSTORE PUSH18 0x10DBDB5B5A5D081C1A185CD948195B991959 PUSH1 0x72 SHL PUSH1 0x44 DUP3 ADD MSTORE PUSH1 0x64 SWAP1 REVERT JUMPDEST SWAP1 PUSH1 0x1 DUP3 DUP2 SHR SWAP3 AND DUP1 ISZERO PUSH2 0x790 JUMPI JUMPDEST PUSH1 0x20 DUP4 LT EQ PUSH2 0x77A JUMPI JUMP JUMPDEST PUSH4 0x4E487B71 PUSH1 0xE0 SHL PUSH1 0x0 MSTORE PUSH1 0x22 PUSH1 0x4 MSTORE PUSH1 0x24 PUSH1 0x0 REVERT JUMPDEST SWAP2 PUSH1 0x7F AND SWAP2 PUSH2 0x76F JUMP JUMPDEST SWAP1 PUSH1 0x1F DUP1 NOT SWAP2 ADD AND DUP2 ADD SWAP1 DUP2 LT PUSH8 0xFFFFFFFFFFFFFFFF DUP3 GT OR PUSH2 0x7BC JUMPI PUSH1 0x40 MSTORE JUMP JUMPDEST PUSH4 0x4E487B71 PUSH1 0xE0 SHL PUSH1 0x0 MSTORE PUSH1 0x41 PUSH1 0x4 MSTORE PUSH1 0x24 PUSH1 0x0 REVERT JUMPDEST SWAP1 SWAP3 SWAP2 PUSH8 0xFFFFFFFFFFFFFFFF DUP2 GT PUSH2 0x7BC JUMPI PUSH2 0x7EE DUP3 SLOAD PUSH2 0x760 JUMP JUMPDEST PUSH1 0x1F DUP2 GT PUSH2 0x896 JUMPI JUMPDEST POP PUSH1 0x0 PUSH1 0x1F DUP3 GT PUSH1 0x1 EQ PUSH2 0x832 JUMPI DUP2 SWAP3 SWAP4 SWAP5 PUSH1 0x0 SWAP3 PUSH2 0x827 JUMPI JUMPDEST POP POP DUP2 PUSH1 0x1 SHL SWAP2 PUSH1 0x0 NOT SWAP1 PUSH1 0x3 SHL SHR NOT AND OR SWAP1 SSTORE JUMP JUMPDEST ADD CALLDATALOAD SWAP1 POP CODESIZE DUP1 PUSH2 0x811 JUMP JUMPDEST PUSH1 0x1F NOT DUP3 AND SWAP5 DUP4 DUP3 MSTORE PUSH1 0x20 SWAP2 DUP3 DUP2 KECCAK256 SWAP3 DUP2 SWAP1 JUMPDEST DUP9 DUP3 LT PUSH2 0x87E JUMPI POP POP DUP4 PUSH1 0x1 SWAP6 SWAP7 SWAP8 LT PUSH2 0x864 JUMPI JUMPDEST POP POP POP DUP2 SHL ADD SWAP1 SSTORE JUMP JUMPDEST ADD CALLDATALOAD PUSH1 0x0 NOT PUSH1 0x3 DUP5 SWAP1 SHL PUSH1 0xF8 AND SHR NOT AND SWAP1 SSTORE CODESIZE DUP1 DUP1 PUSH2 0x85A JUMP JUMPDEST DUP1 PUSH1 0x1 DUP5 SWAP7 DUP3 SWAP5 SWAP6 DUP8 ADD CALLDATALOAD DUP2 SSTORE ADD SWAP6 ADD SWAP3 ADD SWAP1 PUSH2 0x845 JUMP JUMPDEST PUSH1 0x0 DUP4 DUP2 MSTORE PUSH1 0x20 DUP2 KECCAK256 PUSH1 0x1F DUP5 ADD PUSH1 0x5 SHR DUP2 ADD SWAP3 PUSH1 0x20 DUP6 LT PUSH2 0x8D4 JUMPI JUMPDEST PUSH1 0x1F ADD PUSH1 0x5 SHR ADD SWAP2 JUMPDEST DUP3 DUP2 LT PUSH2 0x8C9 JUMPI POP POP PUSH2 0x7F7 JUMP JUMPDEST DUP2 DUP2 SSTORE PUSH1 0x1 ADD PUSH2 0x8BB JUMP JUMPDEST SWAP1 SWAP3 POP DUP3 SWAP1 PUSH2 0x8B2 JUMP INVALID LOG2 PUSH5 0x6970667358 0x22 SLT KECCAK256 0xAC ADDRESS TIMESTAMP LOG4 0xCA BASEFEE 0xE2 0xC4 0xE BYTE 0xCA 0x2A 0xFC 0xCE 0xF9 PUSH30 0x1A6DAECFE4EC5F2C14198FF58F70702064736F6C63430008130033000000 "},"methodIdentifiers":{"commitPhase()":"cc5d6003","players(address)":"e2eb41ff","revealAnswers(string[5],string)":"febdc3d7","revealPhase()":"6dba3ef1","startRevealPhase()":"c6fd5d4e","submitCommit(bytes32)":"62995898"}}}}}