{"contracts/InfiniteQuizSingle.sol":{"InfiniteQuizSingle":{"abi":[{"inputs":[{"internalType":"address","name":"_validator","type":"address"}],"stateMutability":"nonpayable","type":"constructor"},{"anonymous":false,"inputs":[{"indexed":false,"internalType":"address","name":"player","type":"address"},{"indexed":false,"internalType":"bytes32","name":"commitHash","type":"bytes32"},{"indexed":false,"internalType":"uint32","name":"timeTaken","type":"uint32"}],"name":"CommitSubmitted","type":"event"},{"anonymous":false,"inputs":[{"indexed":false,"internalType":"address","name":"publisher","type":"address"}],"name":"CorrectAnswersPublished","type":"event"},{"anonymous":false,"inputs":[{"indexed":false,"internalType":"address","name":"player","type":"address"},{"indexed":false,"internalType":"uint256","name":"stake","type":"uint256"}],"name":"PlayerEntered","type":"event"},{"anonymous":false,"inputs":[{"indexed":false,"internalType":"address","name":"player","type":"address"},{"indexed":false,"internalType":"int256","name":"score","type":"int256"},{"indexed":false,"internalType":"uint256","name":"reward","type":"uint256"}],"name":"PlayerRevealed","type":"event"},{"anonymous":false,"inputs":[{"indexed":false,"internalType":"bytes32","name":"quizHash","type":"bytes32"}],"name":"QuizHashSet","type":"event"},{"anonymous":false,"inputs":[],"name":"RoundReset","type":"event"},{"inputs":[],"name":"commitPhase","outputs":[{"internalType":"bool","name":"","type":"bool"}],"stateMutability":"view","type":"function"},{"inputs":[{"internalType":"uint256","name":"","type":"uint256"}],"name":"correctAnswers","outputs":[{"internalType":"string","name":"","type":"string"}],"stateMutability":"view","type":"function"},{"inputs":[],"name":"correctAnswersPublished","outputs":[{"internalType":"bool","name":"","type":"bool"}],"stateMutability":"view","type":"function"},{"inputs":[],"name":"enterGame","outputs":[],"stateMutability":"payable","type":"function"},{"inputs":[],"name":"owner","outputs":[{"internalType":"address","name":"","type":"address"}],"stateMutability":"view","type":"function"},{"inputs":[],"name":"player","outputs":[{"internalType":"bytes32","name":"commitHash","type":"bytes32"},{"internalType":"uint256","name":"stake","type":"uint256"},{"internalType":"uint32","name":"timeTaken","type":"uint32"},{"internalType":"bool","name":"committed","type":"bool"},{"internalType":"bool","name":"revealed","type":"bool"}],"stateMutability":"view","type":"function"},{"inputs":[],"name":"playerAddress","outputs":[{"internalType":"address","name":"","type":"address"}],"stateMutability":"view","type":"function"},{"inputs":[{"internalType":"string[]","name":"answers","type":"string[]"},{"internalType":"bytes","name":"signature","type":"bytes"}],"name":"publishCorrectAnswers","outputs":[],"stateMutability":"nonpayable","type":"function"},{"inputs":[],"name":"questionCount","outputs":[{"internalType":"uint256","name":"","type":"uint256"}],"stateMutability":"view","type":"function"},{"inputs":[],"name":"quizHash","outputs":[{"internalType":"bytes32","name":"","type":"bytes32"}],"stateMutability":"view","type":"function"},{"inputs":[{"internalType":"string[]","name":"answers","type":"string[]"},{"internalType":"string","name":"salt","type":"string"}],"name":"revealAnswers","outputs":[],"stateMutability":"nonpayable","type":"function"},{"inputs":[],"name":"revealPhase","outputs":[{"internalType":"bool","name":"","type":"bool"}],"stateMutability":"view","type":"function"},{"inputs":[{"internalType":"bytes32","name":"_quizHash","type":"bytes32"}],"name":"setQuizHash","outputs":[],"stateMutability":"nonpayable","type":"function"},{"inputs":[],"name":"startRevealPhase","outputs":[],"stateMutability":"nonpayable","type":"function"},{"inputs":[{"internalType":"bytes32","name":"commitHash","type":"bytes32"},{"internalType":"uint32","name":"_timeTaken","type":"uint32"}],"name":"submitCommit","outputs":[],"stateMutability":"nonpayable","type":"function"},{"inputs":[],"name":"validator","outputs":[{"internalType":"address","name":"","type":"address"}],"stateMutability":"view","type":"function"},{"inputs":[{"internalType":"address payable","name":"to","type":"address"}],"name":"withdraw","outputs":[],"stateMutability":"nonpayable","type":"function"},{"stateMutability":"payable","type":"receive"}],"evm":{"bytecode":{"linkReferences":{},"object":"60803461009457601f6117ff38819003918201601f19168301916001600160401b038311848410176100995780849260209460405283398101031261009457516001600160a01b0381169081900361009457600560045560018060a01b031933816000541617600055600154161760015561ffff196003541660035560ff19600a5416600a5560405161174f90816100b08239f35b600080fd5b634e487b7160e01b600052604160045260246000fdfe6080604052600436101561001b575b361561001957600080fd5b005b60003560e01c80630240743e1461012b5780631468aa2c14610126578063218bd57714610121578063327a8c001461011c5780633a5381b5146101175780634239f41d1461011257806348db5f891461010d57806351cff8d9146101085780635e5ecbc1146101035780636dba3ef1146100fe5780637a67e548146100f95780638da5cb5b146100f4578063a146bf7a146100ef578063c6fd5d4e146100ea578063c824b124146100e5578063cc5d6003146100e05763cf2b277d0361000e57610c3d565b610ad0565b610ab2565b610a21565b6109f8565b6109cf565b6108a1565b61087b565b61064c565b61059b565b61054b565b610407565b61035d565b61033a565b610274565b610256565b346102515760403660031901126102515760043560243563ffffffff81168103610251576008546001600160a01b0316610166338214610f32565b61017460ff60035416610eb3565b15610220577f717b60185b8967fe3550587e7df7b3d37b1ff032c33ce1ecaccbd7123733413c916101ba6101b56101b160075460ff9060201c1690565b1590565b610f6c565b6101c381600555565b6101dd8263ffffffff1663ffffffff196007541617600755565b6101f764010000000064ff00000000196007541617600755565b60408051338152602081019290925263ffffffff9092169181019190915280606081015b0390a1005b60405162461bcd60e51b8152602060048201526009602482015268373790383630bcb2b960b91b6044820152606490fd5b600080fd5b34610251576000366003190112610251576020600454604051908152f35b60003660031901126102515761028e60ff60035416610eb3565b6008546001600160a01b03166102fc576102a9341515610ef5565b600880546001600160a01b031916331790556102c434600655565b604080513381523460208201527fc16481c9484122696a660b57df0bf6839645c6b620cb1704ac2437de13be9225918190810161021b565b60405162461bcd60e51b81526020600482015260166024820152751c1b185e595c88185b1c9958591e48195b9d195c995960521b6044820152606490fd5b3461025157600036600319011261025157602060ff600a54166040519015158152f35b34610251576000366003190112610251576001546040516001600160a01b039091168152602090f35b6040600319820112610251576004359167ffffffffffffffff90818411610251578260238501121561025157836004013593828511610251578360248660051b830101116102515760240193926024359083821161025157806023830112156102515781600401359384116102515760248483010111610251576024019190565b34610251576104d36104ab61041b36610386565b600054929593946001600160a01b039390926104a59161043e9086163314610d2f565b61045261044d60035460ff1690565b610fac565b61045f6004548914610ff8565b60025461048c61049a61047b610476368d8d611097565b61157f565b604051928391602083019586611131565b03601f198101835282610bcc565b519020923691611060565b90611618565b6001549091906104cb906001600160a01b03165b6001600160a01b031690565b91161461114e565b6104db610ded565b60005b828110610529576104f7600160ff19600a541617600a55565b6040513381527fef6093bd6276610f3b7dd2581539270a708135b2a97215204ae676b5dd02078e90806020810161021b565b8061054161053b6105469386866111a9565b90611232565b61119a565b6104de565b346102515760003660031901126102515760a060055460ff60065460075490604051938452602084015263ffffffff81166040840152818160201c161515606084015260281c1615156080820152f35b34610251576020366003190112610251576004356001600160a01b0381811691829003610251576105d9906000808094819482948354163314610d2f565b6105f160035460ff811615908161063d575b50610d68565b47905af16105fd611513565b50156106065780f35b60405162461bcd60e51b815260206004820152600f60248201526e1dda5d1a191c985dc819985a5b1959608a1b6044820152606490fd5b60ff915060081c1615386105eb565b346102515761065a36610386565b9061067060018060a01b03600854163314610f32565b60ff60035460081c16156108405761069261068d600a5460ff1690565b611328565b610701600454926106a4848614610ff8565b600754926106c760ff6020956106bd8282891c16611374565b60281c16156113b7565b6106f56106d861047636898b611097565b9261048c6040519384926106ef898501809861111a565b916113f6565b51902060055414611404565b600092835b8181106107e4577f2ae1e4b3cf620e4186e23c6f546e97cbffd6f2e268daf7cd88118131e72bdbfb858560065490826107c1575b506107576501000000000065ff0000000000196007541617600755565b61076761ff001960035416600355565b6107976000808080856107876104bf6104bf60085460018060a01b031690565b5af1610791611513565b50611543565b600854604080516001600160a01b039092168252602082019390935291820152806060810161021b565b906107d86107de926107d38584610dbe565b6114e6565b90611506565b8361073a565b6107f96107f28284896111a9565b3691611060565b83815191012061081161080b83610b09565b50611442565b8481519101201461082b575b6108269061119a565b610706565b936108386108269161119a565b94905061081d565b60405162461bcd60e51b81526020600482015260136024820152726e6f7420696e2072657665616c20706861736560681b6044820152606490fd5b3461025157600036600319011261025157602060ff60035460081c166040519015158152f35b34610251576020366003190112610251576004357f1ccedde88bb07aec49db6bc29f93dddd0c58c9fa0181bbdaedcc4ce0e21c6d946109c96000926108f060018060a01b038554163314610d2f565b61090760035460ff811615908161063d5750610d68565b61091081600255565b610922600160ff196003541617600355565b61093160ff19600a5416600a55565b610939610ded565b6109a9610944610e93565b858152602080820187905260408201879052606082018790526080909101869052600586905560068690556007805465ffffffffffff191663ffffffff8816178715159283901b64ff00000000161760289290921b65ff000000000016919091179055565b600880546001600160a01b03191690556040519081529081906020820190565b0390a180f35b34610251576000366003190112610251576000546040516001600160a01b039091168152602090f35b34610251576000366003190112610251576008546040516001600160a01b039091168152602090f35b3461025157600080600319360112610aaf57610a4760018060a01b038254163314610d2f565b600354610a5660ff8216610eb3565b60ff60075460201c1615610a735761ffff19166101001760035580f35b60405162461bcd60e51b81526020600482015260146024820152731c1b185e595c881b9bdd0818dbdb5b5a5d1d195960621b6044820152606490fd5b80fd5b34610251576000366003190112610251576020600254604051908152f35b3461025157600036600319011261025157602060ff600354166040519015158152f35b634e487b7160e01b600052603260045260246000fd5b600954811015610b405760096000527f6e1540171b6c0c960b71a7020d9f60077f6af931a8bbf590da0223dacf75c7af0190600090565b610af3565b634e487b7160e01b600052600060045260246000fd5b90600182811c92168015610b8b575b6020831014610b7557565b634e487b7160e01b600052602260045260246000fd5b91607f1691610b6a565b634e487b7160e01b600052604160045260246000fd5b6060810190811067ffffffffffffffff821117610bc757604052565b610b95565b90601f8019910116810190811067ffffffffffffffff821117610bc757604052565b60005b838110610c015750506000910152565b8181015183820152602001610bf1565b60409160208252610c318151809281602086015260208686019101610bee565b601f01601f1916010190565b3461025157602080600319360112610251576004356009548110156102515760096000527f6e1540171b6c0c960b71a7020d9f60077f6af931a8bbf590da0223dacf75c7af0190604051906000928054610c9681610b5b565b80855291600191808316908115610d0d5750600114610cd0575b610ccc85610cc081890382610bcc565b60405191829182610c11565b0390f35b6000908152838120939550925b828410610cfa5750505081610ccc93610cc0928201019338610cb0565b8054858501870152928501928101610cdd565b60ff191686860152505050151560051b8201019150610cc081610ccc38610cb0565b15610d3657565b60405162461bcd60e51b815260206004820152600a6024820152696f776e6572206f6e6c7960b01b6044820152606490fd5b15610d6f57565b60405162461bcd60e51b8152602060048201526011602482015270726f756e6420696e2070726f677265737360781b6044820152606490fd5b634e487b7160e01b600052601160045260246000fd5b81810292918115918404141715610dd157565b610da8565b818110610de1575050565b60008155600101610dd6565b60095460008060095581610dff575050565b600981527f6e1540171b6c0c960b71a7020d9f60077f6af931a8bbf590da0223dacf75c7af918201915b828110610e3557505050565b80610e4260019254610b5b565b80610e4f575b5001610e29565b601f908181118414610e675750508281555b38610e48565b83610e819284875260208720920160051c82019101610dd6565b60008181526020812081835555610e61565b6040519060a0820182811067ffffffffffffffff821117610bc757604052565b15610eba57565b60405162461bcd60e51b81526020600482015260136024820152726e6f7420696e20636f6d6d697420706861736560681b6044820152606490fd5b15610efc57565b60405162461bcd60e51b815260206004820152600e60248201526d1cdd185ad9481c995c5d5a5c995960921b6044820152606490fd5b15610f3957565b60405162461bcd60e51b815260206004820152600b60248201526a37b7363c90383630bcb2b960a91b6044820152606490fd5b15610f7357565b60405162461bcd60e51b8152602060048201526011602482015270185b1c9958591e4818dbdb5b5a5d1d1959607a1b6044820152606490fd5b15610fb357565b60405162461bcd60e51b815260206004820152601960248201527f6e6f7420616363657074696e67207075626c697368206e6f77000000000000006044820152606490fd5b15610fff57565b60405162461bcd60e51b815260206004820152601760248201527f616e7377657273206c656e677468206d69736d617463680000000000000000006044820152606490fd5b67ffffffffffffffff8111610bc757601f01601f191660200190565b92919261106c82611044565b9161107a6040519384610bcc565b829481845281830111610251578281602093846000960137010152565b9291909267ffffffffffffffff91828511610bc7578460051b60405193602080956110c482850182610bcc565b8098815201918401938385116102515780925b8584106110e75750505050505050565b833583811161025157820185601f8201121561025157879161110f8783858095359101611060565b8152019301926110d7565b9061112d60209282815194859201610bee565b0190565b60209291815261114982518093858085019101610bee565b010190565b1561115557565b60405162461bcd60e51b815260206004820152601b60248201527f696e76616c69642076616c696461746f72207369676e617475726500000000006044820152606490fd5b6000198114610dd15760010190565b9190811015610b405760051b81013590601e198136030182121561025157019081359167ffffffffffffffff8311610251576020018236038113610251579190565b9190601f81116111fa57505050565b611226926000526020600020906020601f840160051c83019310611228575b601f0160051c0190610dd6565b565b9091508190611219565b906009549068010000000000000000821015610bc757611259600192838101600955610b09565b9390936113235767ffffffffffffffff8211610bc7576112838261127d8654610b5b565b866111eb565b600090601f83116001146112bd579282939183926000946112b2575b50501b916000199060031b1c1916179055565b01359250388061129f565b601f19831691836112d387600052602060002090565b93825b8782821061130a575050106112f0575b505050811b019055565b0135600019600384901b60f8161c191690553880806112e6565b85850135875590950194602093840193879350016112d6565b610b45565b1561132f57565b60405162461bcd60e51b815260206004820152601d60248201527f636f727265637420616e7377657273206e6f74207075626c69736865640000006044820152606490fd5b1561137b57565b60405162461bcd60e51b81526020600482015260146024820152731c1b185e595c88191a591b89dd0818dbdb5b5a5d60621b6044820152606490fd5b156113be57565b60405162461bcd60e51b815260206004820152601060248201526f185b1c9958591e481c995d99585b195960821b6044820152606490fd5b908092918237016000815290565b1561140b57565b60405162461bcd60e51b815260206004820152600f60248201526e0c6dedadad2e840dad2e6dac2e8c6d608b1b6044820152606490fd5b906040519182600082549261145684610b5b565b9081845260019485811690816000146114c35750600114611480575b505061122692500383610bcc565b9093915060005260209081600020936000915b8183106114ab57505061122693508201013880611472565b85548884018501529485019487945091830191611493565b91505061122694506020925060ff191682840152151560051b8201013880611472565b81156114f0570490565b634e487b7160e01b600052601260045260246000fd5b91908201809211610dd157565b3d1561153e573d9061152482611044565b916115326040519384610bcc565b82523d6000602084013e565b606090565b1561154a57565b60405162461bcd60e51b815260206004820152600d60248201526c1c185e5bdd5d0819985a5b1959609a1b6044820152606490fd5b6000919060605b81518410156115f5576115ef906115e96021602092838860051b8701015193601f60fa1b60405195836115c28895518092868089019101610bee565b84016115d682518093868085019101610bee565b0191820152036001810184520182610bcc565b9361119a565b92611586565b925050565b60ff601b9116019060ff8211610dd157565b6040513d6000823e3d90fd5b60405160208101917f19457468657265756d205369676e6564204d6573736167653a0a3332000000008352603c820152603c815261165581610bab565b51902060418251036116df576020916000918291848101519260606040830151920151901a92601b84106116c8575b906116af91604051948594859094939260ff6060936080840197845216602083015260408201520152565b838052039060015afa156116c35760005190565b61160c565b92906116d66116af926115fa565b93909150611684565b60405162461bcd60e51b81526020600482015260126024820152710d2dcecc2d8d2c840e6d2ce40d8cadccee8d60731b6044820152606490fdfea26469706673582212203a6c336ac588822a86dbcc3ebc235d14839423286d3c2c392b2da764f76a35c564736f6c63430008130033","opcodes":"PUSH1 0x80 CALLVALUE PUSH2 0x94 JUMPI PUSH1 0x1F PUSH2 0x17FF CODESIZE DUP2 SWAP1 SUB SWAP2 DUP3 ADD PUSH1 0x1F NOT AND DUP4 ADD SWAP2 PUSH1 0x1 PUSH1 0x1 PUSH1 0x40 SHL SUB DUP4 GT DUP5 DUP5 LT OR PUSH2 0x99 JUMPI DUP1 DUP5 SWAP3 PUSH1 0x20 SWAP5 PUSH1 0x40 MSTORE DUP4 CODECOPY DUP2 ADD SUB SLT PUSH2 0x94 JUMPI MLOAD PUSH1 0x1 PUSH1 0x1 PUSH1 0xA0 SHL SUB DUP2 AND SWAP1 DUP2 SWAP1 SUB PUSH2 0x94 JUMPI PUSH1 0x5 PUSH1 0x4 SSTORE PUSH1 0x1 DUP1 PUSH1 0xA0 SHL SUB NOT CALLER DUP2 PUSH1 0x0 SLOAD AND OR PUSH1 0x0 SSTORE PUSH1 0x1 SLOAD AND OR PUSH1 0x1 SSTORE PUSH2 0xFFFF NOT PUSH1 0x3 SLOAD AND PUSH1 0x3 SSTORE PUSH1 0xFF NOT PUSH1 0xA SLOAD AND PUSH1 0xA SSTORE PUSH1 0x40 MLOAD PUSH2 0x174F SWAP1 DUP2 PUSH2 0xB0 DUP3 CODECOPY RETURN JUMPDEST PUSH1 0x0 DUP1 REVERT JUMPDEST PUSH4 0x4E487B71 PUSH1 0xE0 SHL PUSH1 0x0 MSTORE PUSH1 0x41 PUSH1 0x4 MSTORE PUSH1 0x24 PUSH1 0x0 REVERT INVALID PUSH1 0x80 PUSH1 0x40 MSTORE PUSH1 0x4 CALLDATASIZE LT ISZERO PUSH2 0x1B JUMPI JUMPDEST CALLDATASIZE ISZERO PUSH2 0x19 JUMPI PUSH1 0x0 DUP1 REVERT JUMPDEST STOP JUMPDEST PUSH1 0x0 CALLDATALOAD PUSH1 0xE0 SHR DUP1 PUSH4 0x240743E EQ PUSH2 0x12B JUMPI DUP1 PUSH4 0x1468AA2C EQ PUSH2 0x126 JUMPI DUP1 PUSH4 0x218BD577 EQ PUSH2 0x121 JUMPI DUP1 PUSH4 0x327A8C00 EQ PUSH2 0x11C JUMPI DUP1 PUSH4 0x3A5381B5 EQ PUSH2 0x117 JUMPI DUP1 PUSH4 0x4239F41D EQ PUSH2 0x112 JUMPI DUP1 PUSH4 0x48DB5F89 EQ PUSH2 0x10D JUMPI DUP1 PUSH4 0x51CFF8D9 EQ PUSH2 0x108 JUMPI DUP1 PUSH4 0x5E5ECBC1 EQ PUSH2 0x103 JUMPI DUP1 PUSH4 0x6DBA3EF1 EQ PUSH2 0xFE JUMPI DUP1 PUSH4 0x7A67E548 EQ PUSH2 0xF9 JUMPI DUP1 PUSH4 0x8DA5CB5B EQ PUSH2 0xF4 JUMPI DUP1 PUSH4 0xA146BF7A EQ PUSH2 0xEF JUMPI DUP1 PUSH4 0xC6FD5D4E EQ PUSH2 0xEA JUMPI DUP1 PUSH4 0xC824B124 EQ PUSH2 0xE5 JUMPI DUP1 PUSH4 0xCC5D6003 EQ PUSH2 0xE0 JUMPI PUSH4 0xCF2B277D SUB PUSH2 0xE JUMPI PUSH2 0xC3D JUMP JUMPDEST PUSH2 0xAD0 JUMP JUMPDEST PUSH2 0xAB2 JUMP JUMPDEST PUSH2 0xA21 JUMP JUMPDEST PUSH2 0x9F8 JUMP JUMPDEST PUSH2 0x9CF JUMP JUMPDEST PUSH2 0x8A1 JUMP JUMPDEST PUSH2 0x87B JUMP JUMPDEST PUSH2 0x64C JUMP JUMPDEST PUSH2 0x59B JUMP JUMPDEST PUSH2 0x54B JUMP JUMPDEST PUSH2 0x407 JUMP JUMPDEST PUSH2 0x35D JUMP JUMPDEST PUSH2 0x33A JUMP JUMPDEST PUSH2 0x274 JUMP JUMPDEST PUSH2 0x256 JUMP JUMPDEST CALLVALUE PUSH2 0x251 JUMPI PUSH1 0x40 CALLDATASIZE PUSH1 0x3 NOT ADD SLT PUSH2 0x251 JUMPI PUSH1 0x4 CALLDATALOAD PUSH1 0x24 CALLDATALOAD PUSH4 0xFFFFFFFF DUP2 AND DUP2 SUB PUSH2 0x251 JUMPI PUSH1 0x8 SLOAD PUSH1 0x1 PUSH1 0x1 PUSH1 0xA0 SHL SUB AND PUSH2 0x166 CALLER DUP3 EQ PUSH2 0xF32 JUMP JUMPDEST PUSH2 0x174 PUSH1 0xFF PUSH1 0x3 SLOAD AND PUSH2 0xEB3 JUMP JUMPDEST ISZERO PUSH2 0x220 JUMPI PUSH32 0x717B60185B8967FE3550587E7DF7B3D37B1FF032C33CE1ECACCBD7123733413C SWAP2 PUSH2 0x1BA PUSH2 0x1B5 PUSH2 0x1B1 PUSH1 0x7 SLOAD PUSH1 0xFF SWAP1 PUSH1 0x20 SHR AND SWAP1 JUMP JUMPDEST ISZERO SWAP1 JUMP JUMPDEST PUSH2 0xF6C JUMP JUMPDEST PUSH2 0x1C3 DUP2 PUSH1 0x5 SSTORE JUMP JUMPDEST PUSH2 0x1DD DUP3 PUSH4 0xFFFFFFFF AND PUSH4 0xFFFFFFFF NOT PUSH1 0x7 SLOAD AND OR PUSH1 0x7 SSTORE JUMP JUMPDEST PUSH2 0x1F7 PUSH5 0x100000000 PUSH5 0xFF00000000 NOT PUSH1 0x7 SLOAD AND OR PUSH1 0x7 SSTORE JUMP JUMPDEST PUSH1 0x40 DUP1 MLOAD CALLER DUP2 MSTORE PUSH1 0x20 DUP2 ADD SWAP3 SWAP1 SWAP3 MSTORE PUSH4 0xFFFFFFFF SWAP1 SWAP3 AND SWAP2 DUP2 ADD SWAP2 SWAP1 SWAP2 MSTORE DUP1 PUSH1 0x60 DUP2 ADD JUMPDEST SUB SWAP1 LOG1 STOP JUMPDEST PUSH1 0x40 MLOAD PUSH3 0x461BCD PUSH1 0xE5 SHL DUP2 MSTORE PUSH1 0x20 PUSH1 0x4 DUP3 ADD MSTORE PUSH1 0x9 PUSH1 0x24 DUP3 ADD MSTORE PUSH9 0x373790383630BCB2B9 PUSH1 0xB9 SHL PUSH1 0x44 DUP3 ADD MSTORE PUSH1 0x64 SWAP1 REVERT JUMPDEST PUSH1 0x0 DUP1 REVERT JUMPDEST CALLVALUE PUSH2 0x251 JUMPI PUSH1 0x0 CALLDATASIZE PUSH1 0x3 NOT ADD SLT PUSH2 0x251 JUMPI PUSH1 0x20 PUSH1 0x4 SLOAD PUSH1 0x40 MLOAD SWAP1 DUP2 MSTORE RETURN JUMPDEST PUSH1 0x0 CALLDATASIZE PUSH1 0x3 NOT ADD SLT PUSH2 0x251 JUMPI PUSH2 0x28E PUSH1 0xFF PUSH1 0x3 SLOAD AND PUSH2 0xEB3 JUMP JUMPDEST PUSH1 0x8 SLOAD PUSH1 0x1 PUSH1 0x1 PUSH1 0xA0 SHL SUB AND PUSH2 0x2FC JUMPI PUSH2 0x2A9 CALLVALUE ISZERO ISZERO PUSH2 0xEF5 JUMP JUMPDEST PUSH1 0x8 DUP1 SLOAD PUSH1 0x1 PUSH1 0x1 PUSH1 0xA0 SHL SUB NOT AND CALLER OR SWAP1 SSTORE PUSH2 0x2C4 CALLVALUE PUSH1 0x6 SSTORE JUMP JUMPDEST PUSH1 0x40 DUP1 MLOAD CALLER DUP2 MSTORE CALLVALUE PUSH1 0x20 DUP3 ADD MSTORE PUSH32 0xC16481C9484122696A660B57DF0BF6839645C6B620CB1704AC2437DE13BE9225 SWAP2 DUP2 SWAP1 DUP2 ADD PUSH2 0x21B JUMP JUMPDEST PUSH1 0x40 MLOAD PUSH3 0x461BCD PUSH1 0xE5 SHL DUP2 MSTORE PUSH1 0x20 PUSH1 0x4 DUP3 ADD MSTORE PUSH1 0x16 PUSH1 0x24 DUP3 ADD MSTORE PUSH22 0x1C1B185E595C88185B1C9958591E48195B9D195C9959 PUSH1 0x52 SHL PUSH1 0x44 DUP3 ADD MSTORE PUSH1 0x64 SWAP1 REVERT JUMPDEST CALLVALUE PUSH2 0x251 JUMPI PUSH1 0x0 CALLDATASIZE PUSH1 0x3 NOT ADD SLT PUSH2 0x251 JUMPI PUSH1 0x20 PUSH1 0xFF PUSH1 0xA SLOAD AND PUSH1 0x40 MLOAD SWAP1 ISZERO ISZERO DUP2 MSTORE RETURN JUMPDEST CALLVALUE PUSH2 0x251 JUMPI PUSH1 0x0 CALLDATASIZE PUSH1 0x3 NOT ADD SLT PUSH2 0x251 JUMPI PUSH1 0x1 SLOAD PUSH1 0x40 MLOAD PUSH1 0x1 PUSH1 0x1 PUSH1 0xA0 SHL SUB SWAP1 SWAP2 AND DUP2 MSTORE PUSH1 0x20 SWAP1 RETURN JUMPDEST PUSH1 0x40 PUSH1 0x3 NOT DUP3 ADD SLT PUSH2 0x251 JUMPI PUSH1 0x4 CALLDATALOAD SWAP2 PUSH8 0xFFFFFFFFFFFFFFFF SWAP1 DUP2 DUP5 GT PUSH2 0x251 JUMPI DUP3 PUSH1 0x23 DUP6 ADD SLT ISZERO PUSH2 0x251 JUMPI DUP4 PUSH1 0x4 ADD CALLDATALOAD SWAP4 DUP3 DUP6 GT PUSH2 0x251 JUMPI DUP4 PUSH1 0x24 DUP7 PUSH1 0x5 SHL DUP4 ADD ADD GT PUSH2 0x251 JUMPI PUSH1 0x24 ADD SWAP4 SWAP3 PUSH1 0x24 CALLDATALOAD SWAP1 DUP4 DUP3 GT PUSH2 0x251 JUMPI DUP1 PUSH1 0x23 DUP4 ADD SLT ISZERO PUSH2 0x251 JUMPI DUP2 PUSH1 0x4 ADD CALLDATALOAD SWAP4 DUP5 GT PUSH2 0x251 JUMPI PUSH1 0x24 DUP5 DUP4 ADD ADD GT PUSH2 0x251 JUMPI PUSH1 0x24 ADD SWAP2 SWAP1 JUMP JUMPDEST CALLVALUE PUSH2 0x251 JUMPI PUSH2 0x4D3 PUSH2 0x4AB PUSH2 0x41B CALLDATASIZE PUSH2 0x386 JUMP JUMPDEST PUSH1 0x0 SLOAD SWAP3 SWAP6 SWAP4 SWAP5 PUSH1 0x1 PUSH1 0x1 PUSH1 0xA0 SHL SUB SWAP4 SWAP1 SWAP3 PUSH2 0x4A5 SWAP2 PUSH2 0x43E SWAP1 DUP7 AND CALLER EQ PUSH2 0xD2F JUMP JUMPDEST PUSH2 0x452 PUSH2 0x44D PUSH1 0x3 SLOAD PUSH1 0xFF AND SWAP1 JUMP JUMPDEST PUSH2 0xFAC JUMP JUMPDEST PUSH2 0x45F PUSH1 0x4 SLOAD DUP10 EQ PUSH2 0xFF8 JUMP JUMPDEST PUSH1 0x2 SLOAD PUSH2 0x48C PUSH2 0x49A PUSH2 0x47B PUSH2 0x476 CALLDATASIZE DUP14 DUP14 PUSH2 0x1097 JUMP JUMPDEST PUSH2 0x157F JUMP JUMPDEST PUSH1 0x40 MLOAD SWAP3 DUP4 SWAP2 PUSH1 0x20 DUP4 ADD SWAP6 DUP7 PUSH2 0x1131 JUMP JUMPDEST SUB PUSH1 0x1F NOT DUP2 ADD DUP4 MSTORE DUP3 PUSH2 0xBCC JUMP JUMPDEST MLOAD SWAP1 KECCAK256 SWAP3 CALLDATASIZE SWAP2 PUSH2 0x1060 JUMP JUMPDEST SWAP1 PUSH2 0x1618 JUMP JUMPDEST PUSH1 0x1 SLOAD SWAP1 SWAP2 SWAP1 PUSH2 0x4CB SWAP1 PUSH1 0x1 PUSH1 0x1 PUSH1 0xA0 SHL SUB AND JUMPDEST PUSH1 0x1 PUSH1 0x1 PUSH1 0xA0 SHL SUB AND SWAP1 JUMP JUMPDEST SWAP2 AND EQ PUSH2 0x114E JUMP JUMPDEST PUSH2 0x4DB PUSH2 0xDED JUMP JUMPDEST PUSH1 0x0 JUMPDEST DUP3 DUP2 LT PUSH2 0x529 JUMPI PUSH2 0x4F7 PUSH1 0x1 PUSH1 0xFF NOT PUSH1 0xA SLOAD AND OR PUSH1 0xA SSTORE JUMP JUMPDEST PUSH1 0x40 MLOAD CALLER DUP2 MSTORE PUSH32 0xEF6093BD6276610F3B7DD2581539270A708135B2A97215204AE676B5DD02078E SWAP1 DUP1 PUSH1 0x20 DUP2 ADD PUSH2 0x21B JUMP JUMPDEST DUP1 PUSH2 0x541 PUSH2 0x53B PUSH2 0x546 SWAP4 DUP7 DUP7 PUSH2 0x11A9 JUMP JUMPDEST SWAP1 PUSH2 0x1232 JUMP JUMPDEST PUSH2 0x119A JUMP JUMPDEST PUSH2 0x4DE JUMP JUMPDEST CALLVALUE PUSH2 0x251 JUMPI PUSH1 0x0 CALLDATASIZE PUSH1 0x3 NOT ADD SLT PUSH2 0x251 JUMPI PUSH1 0xA0 PUSH1 0x5 SLOAD PUSH1 0xFF PUSH1 0x6 SLOAD PUSH1 0x7 SLOAD SWAP1 PUSH1 0x40 MLOAD SWAP4 DUP5 MSTORE PUSH1 0x20 DUP5 ADD MSTORE PUSH4 0xFFFFFFFF DUP2 AND PUSH1 0x40 DUP5 ADD MSTORE DUP2 DUP2 PUSH1 0x20 SHR AND ISZERO ISZERO PUSH1 0x60 DUP5 ADD MSTORE PUSH1 0x28 SHR AND ISZERO ISZERO PUSH1 0x80 DUP3 ADD MSTORE RETURN JUMPDEST CALLVALUE PUSH2 0x251 JUMPI PUSH1 0x20 CALLDATASIZE PUSH1 0x3 NOT ADD SLT PUSH2 0x251 JUMPI PUSH1 0x4 CALLDATALOAD PUSH1 0x1 PUSH1 0x1 PUSH1 0xA0 SHL SUB DUP2 DUP2 AND SWAP2 DUP3 SWAP1 SUB PUSH2 0x251 JUMPI PUSH2 0x5D9 SWAP1 PUSH1 0x0 DUP1 DUP1 SWAP5 DUP2 SWAP5 DUP3 SWAP5 DUP4 SLOAD AND CALLER EQ PUSH2 0xD2F JUMP JUMPDEST PUSH2 0x5F1 PUSH1 0x3 SLOAD PUSH1 0xFF DUP2 AND ISZERO SWAP1 DUP2 PUSH2 0x63D JUMPI JUMPDEST POP PUSH2 0xD68 JUMP JUMPDEST SELFBALANCE SWAP1 GAS CALL PUSH2 0x5FD PUSH2 0x1513 JUMP JUMPDEST POP ISZERO PUSH2 0x606 JUMPI DUP1 RETURN JUMPDEST PUSH1 0x40 MLOAD PUSH3 0x461BCD PUSH1 0xE5 SHL DUP2 MSTORE PUSH1 0x20 PUSH1 0x4 DUP3 ADD MSTORE PUSH1 0xF PUSH1 0x24 DUP3 ADD MSTORE PUSH15 0x1DDA5D1A191C985DC819985A5B1959 PUSH1 0x8A SHL PUSH1 0x44 DUP3 ADD MSTORE PUSH1 0x64 SWAP1 REVERT JUMPDEST PUSH1 0xFF SWAP2 POP PUSH1 0x8 SHR AND ISZERO CODESIZE PUSH2 0x5EB JUMP JUMPDEST CALLVALUE PUSH2 0x251 JUMPI PUSH2 0x65A CALLDATASIZE PUSH2 0x386 JUMP JUMPDEST SWAP1 PUSH2 0x670 PUSH1 0x1 DUP1 PUSH1 0xA0 SHL SUB PUSH1 0x8 SLOAD AND CALLER EQ PUSH2 0xF32 JUMP JUMPDEST PUSH1 0xFF PUSH1 0x3 SLOAD PUSH1 0x8 SHR AND ISZERO PUSH2 0x840 JUMPI PUSH2 0x692 PUSH2 0x68D PUSH1 0xA SLOAD PUSH1 0xFF AND SWAP1 JUMP JUMPDEST PUSH2 0x1328 JUMP JUMPDEST PUSH2 0x701 PUSH1 0x4 SLOAD SWAP3 PUSH2 0x6A4 DUP5 DUP7 EQ PUSH2 0xFF8 JUMP JUMPDEST PUSH1 0x7 SLOAD SWAP3 PUSH2 0x6C7 PUSH1 0xFF PUSH1 0x20 SWAP6 PUSH2 0x6BD DUP3 DUP3 DUP10 SHR AND PUSH2 0x1374 JUMP JUMPDEST PUSH1 0x28 SHR AND ISZERO PUSH2 0x13B7 JUMP JUMPDEST PUSH2 0x6F5 PUSH2 0x6D8 PUSH2 0x476 CALLDATASIZE DUP10 DUP12 PUSH2 0x1097 JUMP JUMPDEST SWAP3 PUSH2 0x48C PUSH1 0x40 MLOAD SWAP4 DUP5 SWAP3 PUSH2 0x6EF DUP10 DUP6 ADD DUP1 SWAP9 PUSH2 0x111A JUMP JUMPDEST SWAP2 PUSH2 0x13F6 JUMP JUMPDEST MLOAD SWAP1 KECCAK256 PUSH1 0x5 SLOAD EQ PUSH2 0x1404 JUMP JUMPDEST PUSH1 0x0 SWAP3 DUP4 JUMPDEST DUP2 DUP2 LT PUSH2 0x7E4 JUMPI PUSH32 0x2AE1E4B3CF620E4186E23C6F546E97CBFFD6F2E268DAF7CD88118131E72BDBFB DUP6 DUP6 PUSH1 0x6 SLOAD SWAP1 DUP3 PUSH2 0x7C1 JUMPI JUMPDEST POP PUSH2 0x757 PUSH6 0x10000000000 PUSH6 0xFF0000000000 NOT PUSH1 0x7 SLOAD AND OR PUSH1 0x7 SSTORE JUMP JUMPDEST PUSH2 0x767 PUSH2 0xFF00 NOT PUSH1 0x3 SLOAD AND PUSH1 0x3 SSTORE JUMP JUMPDEST PUSH2 0x797 PUSH1 0x0 DUP1 DUP1 DUP1 DUP6 PUSH2 0x787 PUSH2 0x4BF PUSH2 0x4BF PUSH1 0x8 SLOAD PUSH1 0x1 DUP1 PUSH1 0xA0 SHL SUB AND SWAP1 JUMP JUMPDEST GAS CALL PUSH2 0x791 PUSH2 0x1513 JUMP JUMPDEST POP PUSH2 0x1543 JUMP JUMPDEST PUSH1 0x8 SLOAD PUSH1 0x40 DUP1 MLOAD PUSH1 0x1 PUSH1 0x1 PUSH1 0xA0 SHL SUB SWAP1 SWAP3 AND DUP3 MSTORE PUSH1 0x20 DUP3 ADD SWAP4 SWAP1 SWAP4 MSTORE SWAP2 DUP3 ADD MSTORE DUP1 PUSH1 0x60 DUP2 ADD PUSH2 0x21B JUMP JUMPDEST SWAP1 PUSH2 0x7D8 PUSH2 0x7DE SWAP3 PUSH2 0x7D3 DUP6 DUP5 PUSH2 0xDBE JUMP JUMPDEST PUSH2 0x14E6 JUMP JUMPDEST SWAP1 PUSH2 0x1506 JUMP JUMPDEST DUP4 PUSH2 0x73A JUMP JUMPDEST PUSH2 0x7F9 PUSH2 0x7F2 DUP3 DUP5 DUP10 PUSH2 0x11A9 JUMP JUMPDEST CALLDATASIZE SWAP2 PUSH2 0x1060 JUMP JUMPDEST DUP4 DUP2 MLOAD SWAP2 ADD KECCAK256 PUSH2 0x811 PUSH2 0x80B DUP4 PUSH2 0xB09 JUMP JUMPDEST POP PUSH2 0x1442 JUMP JUMPDEST DUP5 DUP2 MLOAD SWAP2 ADD KECCAK256 EQ PUSH2 0x82B JUMPI JUMPDEST PUSH2 0x826 SWAP1 PUSH2 0x119A JUMP JUMPDEST PUSH2 0x706 JUMP JUMPDEST SWAP4 PUSH2 0x838 PUSH2 0x826 SWAP2 PUSH2 0x119A JUMP JUMPDEST SWAP5 SWAP1 POP PUSH2 0x81D JUMP JUMPDEST PUSH1 0x40 MLOAD PUSH3 0x461BCD PUSH1 0xE5 SHL DUP2 MSTORE PUSH1 0x20 PUSH1 0x4 DUP3 ADD MSTORE PUSH1 0x13 PUSH1 0x24 DUP3 ADD MSTORE PUSH19 0x6E6F7420696E2072657665616C207068617365 PUSH1 0x68 SHL PUSH1 0x44 DUP3 ADD MSTORE PUSH1 0x64 SWAP1 REVERT JUMPDEST CALLVALUE PUSH2 0x251 JUMPI PUSH1 0x0 CALLDATASIZE PUSH1 0x3 NOT ADD SLT PUSH2 0x251 JUMPI PUSH1 0x20 PUSH1 0xFF PUSH1 0x3 SLOAD PUSH1 0x8 SHR AND PUSH1 0x40 MLOAD SWAP1 ISZERO ISZERO DUP2 MSTORE RETURN JUMPDEST CALLVALUE PUSH2 0x251 JUMPI PUSH1 0x20 CALLDATASIZE PUSH1 0x3 NOT ADD SLT PUSH2 0x251 JUMPI PUSH1 0x4 CALLDATALOAD PUSH32 0x1CCEDDE88BB07AEC49DB6BC29F93DDDD0C58C9FA0181BBDAEDCC4CE0E21C6D94 PUSH2 0x9C9 PUSH1 0x0 SWAP3 PUSH2 0x8F0 PUSH1 0x1 DUP1 PUSH1 0xA0 SHL SUB DUP6 SLOAD AND CALLER EQ PUSH2 0xD2F JUMP JUMPDEST PUSH2 0x907 PUSH1 0x3 SLOAD PUSH1 0xFF DUP2 AND ISZERO SWAP1 DUP2 PUSH2 0x63D JUMPI POP PUSH2 0xD68 JUMP JUMPDEST PUSH2 0x910 DUP2 PUSH1 0x2 SSTORE JUMP JUMPDEST PUSH2 0x922 PUSH1 0x1 PUSH1 0xFF NOT PUSH1 0x3 SLOAD AND OR PUSH1 0x3 SSTORE JUMP JUMPDEST PUSH2 0x931 PUSH1 0xFF NOT PUSH1 0xA SLOAD AND PUSH1 0xA SSTORE JUMP JUMPDEST PUSH2 0x939 PUSH2 0xDED JUMP JUMPDEST PUSH2 0x9A9 PUSH2 0x944 PUSH2 0xE93 JUMP JUMPDEST DUP6 DUP2 MSTORE PUSH1 0x20 DUP1 DUP3 ADD DUP8 SWAP1 MSTORE PUSH1 0x40 DUP3 ADD DUP8 SWAP1 MSTORE PUSH1 0x60 DUP3 ADD DUP8 SWAP1 MSTORE PUSH1 0x80 SWAP1 SWAP2 ADD DUP7 SWAP1 MSTORE PUSH1 0x5 DUP7 SWAP1 SSTORE PUSH1 0x6 DUP7 SWAP1 SSTORE PUSH1 0x7 DUP1 SLOAD PUSH6 0xFFFFFFFFFFFF NOT AND PUSH4 0xFFFFFFFF DUP9 AND OR DUP8 ISZERO ISZERO SWAP3 DUP4 SWAP1 SHL PUSH5 0xFF00000000 AND OR PUSH1 0x28 SWAP3 SWAP1 SWAP3 SHL PUSH6 0xFF0000000000 AND SWAP2 SWAP1 SWAP2 OR SWAP1 SSTORE JUMP JUMPDEST PUSH1 0x8 DUP1 SLOAD PUSH1 0x1 PUSH1 0x1 PUSH1 0xA0 SHL SUB NOT AND SWAP1 SSTORE PUSH1 0x40 MLOAD SWAP1 DUP2 MSTORE SWAP1 DUP2 SWAP1 PUSH1 0x20 DUP3 ADD SWAP1 JUMP JUMPDEST SUB SWAP1 LOG1 DUP1 RETURN JUMPDEST CALLVALUE PUSH2 0x251 JUMPI PUSH1 0x0 CALLDATASIZE PUSH1 0x3 NOT ADD SLT PUSH2 0x251 JUMPI PUSH1 0x0 SLOAD PUSH1 0x40 MLOAD PUSH1 0x1 PUSH1 0x1 PUSH1 0xA0 SHL SUB SWAP1 SWAP2 AND DUP2 MSTORE PUSH1 0x20 SWAP1 RETURN JUMPDEST CALLVALUE PUSH2 0x251 JUMPI PUSH1 0x0 CALLDATASIZE PUSH1 0x3 NOT ADD SLT PUSH2 0x251 JUMPI PUSH1 0x8 SLOAD PUSH1 0x40 MLOAD PUSH1 0x1 PUSH1 0x1 PUSH1 0xA0 SHL SUB SWAP1 SWAP2 AND DUP2 MSTORE PUSH1 0x20 SWAP1 RETURN JUMPDEST CALLVALUE PUSH2 0x251 JUMPI PUSH1 0x0 DUP1 PUSH1 0x3 NOT CALLDATASIZE ADD SLT PUSH2 0xAAF JUMPI PUSH2 0xA47 PUSH1 0x1 DUP1 PUSH1 0xA0 SHL SUB DUP3 SLOAD AND CALLER EQ PUSH2 0xD2F JUMP JUMPDEST PUSH1 0x3 SLOAD PUSH2 0xA56 PUSH1 0xFF DUP3 AND PUSH2 0xEB3 JUMP JUMPDEST PUSH1 0xFF PUSH1 0x7 SLOAD PUSH1 0x20 SHR AND ISZERO PUSH2 0xA73 JUMPI PUSH2 0xFFFF NOT AND PUSH2 0x100 OR PUSH1 0x3 SSTORE DUP1 RETURN JUMPDEST PUSH1 0x40 MLOAD PUSH3 0x461BCD PUSH1 0xE5 SHL DUP2 MSTORE PUSH1 0x20 PUSH1 0x4 DUP3 ADD MSTORE PUSH1 0x14 PUSH1 0x24 DUP3 ADD MSTORE PUSH20 0x1C1B185E595C881B9BDD0818DBDB5B5A5D1D1959 PUSH1 0x62 SHL PUSH1 0x44 DUP3 ADD MSTORE PUSH1 0x64 SWAP1 REVERT JUMPDEST DUP1 REVERT JUMPDEST CALLVALUE PUSH2 0x251 JUMPI PUSH1 0x0 CALLDATASIZE PUSH1 0x3 NOT ADD SLT PUSH2 0x251 JUMPI PUSH1 0x20 PUSH1 0x2 SLOAD PUSH1 0x40 MLOAD SWAP1 DUP2 MSTORE RETURN JUMPDEST CALLVALUE PUSH2 0x251 JUMPI PUSH1 0x0 CALLDATASIZE PUSH1 0x3 NOT ADD SLT PUSH2 0x251 JUMPI PUSH1 0x20 PUSH1 0xFF PUSH1 0x3 SLOAD AND PUSH1 0x40 MLOAD SWAP1 ISZERO ISZERO DUP2 MSTORE RETURN JUMPDEST PUSH4 0x4E487B71 PUSH1 0xE0 SHL PUSH1 0x0 MSTORE PUSH1 0x32 PUSH1 0x4 MSTORE PUSH1 0x24 PUSH1 0x0 REVERT JUMPDEST PUSH1 0x9 SLOAD DUP2 LT ISZERO PUSH2 0xB40 JUMPI PUSH1 0x9 PUSH1 0x0 MSTORE PUSH32 0x6E1540171B6C0C960B71A7020D9F60077F6AF931A8BBF590DA0223DACF75C7AF ADD SWAP1 PUSH1 0x0 SWAP1 JUMP JUMPDEST PUSH2 0xAF3 JUMP JUMPDEST PUSH4 0x4E487B71 PUSH1 0xE0 SHL PUSH1 0x0 MSTORE PUSH1 0x0 PUSH1 0x4 MSTORE PUSH1 0x24 PUSH1 0x0 REVERT JUMPDEST SWAP1 PUSH1 0x1 DUP3 DUP2 SHR SWAP3 AND DUP1 ISZERO PUSH2 0xB8B JUMPI JUMPDEST PUSH1 0x20 DUP4 LT EQ PUSH2 0xB75 JUMPI JUMP JUMPDEST PUSH4 0x4E487B71 PUSH1 0xE0 SHL PUSH1 0x0 MSTORE PUSH1 0x22 PUSH1 0x4 MSTORE PUSH1 0x24 PUSH1 0x0 REVERT JUMPDEST SWAP2 PUSH1 0x7F AND SWAP2 PUSH2 0xB6A JUMP JUMPDEST PUSH4 0x4E487B71 PUSH1 0xE0 SHL PUSH1 0x0 MSTORE PUSH1 0x41 PUSH1 0x4 MSTORE PUSH1 0x24 PUSH1 0x0 REVERT JUMPDEST PUSH1 0x60 DUP2 ADD SWAP1 DUP2 LT PUSH8 0xFFFFFFFFFFFFFFFF DUP3 GT OR PUSH2 0xBC7 JUMPI PUSH1 0x40 MSTORE JUMP JUMPDEST PUSH2 0xB95 JUMP JUMPDEST SWAP1 PUSH1 0x1F DUP1 NOT SWAP2 ADD AND DUP2 ADD SWAP1 DUP2 LT PUSH8 0xFFFFFFFFFFFFFFFF DUP3 GT OR PUSH2 0xBC7 JUMPI PUSH1 0x40 MSTORE JUMP JUMPDEST PUSH1 0x0 JUMPDEST DUP4 DUP2 LT PUSH2 0xC01 JUMPI POP POP PUSH1 0x0 SWAP2 ADD MSTORE JUMP JUMPDEST DUP2 DUP2 ADD MLOAD DUP4 DUP3 ADD MSTORE PUSH1 0x20 ADD PUSH2 0xBF1 JUMP JUMPDEST PUSH1 0x40 SWAP2 PUSH1 0x20 DUP3 MSTORE PUSH2 0xC31 DUP2 MLOAD DUP1 SWAP3 DUP2 PUSH1 0x20 DUP7 ADD MSTORE PUSH1 0x20 DUP7 DUP7 ADD SWAP2 ADD PUSH2 0xBEE JUMP JUMPDEST PUSH1 0x1F ADD PUSH1 0x1F NOT AND ADD ADD SWAP1 JUMP JUMPDEST CALLVALUE PUSH2 0x251 JUMPI PUSH1 0x20 DUP1 PUSH1 0x3 NOT CALLDATASIZE ADD SLT PUSH2 0x251 JUMPI PUSH1 0x4 CALLDATALOAD PUSH1 0x9 SLOAD DUP2 LT ISZERO PUSH2 0x251 JUMPI PUSH1 0x9 PUSH1 0x0 MSTORE PUSH32 0x6E1540171B6C0C960B71A7020D9F60077F6AF931A8BBF590DA0223DACF75C7AF ADD SWAP1 PUSH1 0x40 MLOAD SWAP1 PUSH1 0x0 SWAP3 DUP1 SLOAD PUSH2 0xC96 DUP2 PUSH2 0xB5B JUMP JUMPDEST DUP1 DUP6 MSTORE SWAP2 PUSH1 0x1 SWAP2 DUP1 DUP4 AND SWAP1 DUP2 ISZERO PUSH2 0xD0D JUMPI POP PUSH1 0x1 EQ PUSH2 0xCD0 JUMPI JUMPDEST PUSH2 0xCCC DUP6 PUSH2 0xCC0 DUP2 DUP10 SUB DUP3 PUSH2 0xBCC JUMP JUMPDEST PUSH1 0x40 MLOAD SWAP2 DUP3 SWAP2 DUP3 PUSH2 0xC11 JUMP JUMPDEST SUB SWAP1 RETURN JUMPDEST PUSH1 0x0 SWAP1 DUP2 MSTORE DUP4 DUP2 KECCAK256 SWAP4 SWAP6 POP SWAP3 JUMPDEST DUP3 DUP5 LT PUSH2 0xCFA JUMPI POP POP POP DUP2 PUSH2 0xCCC SWAP4 PUSH2 0xCC0 SWAP3 DUP3 ADD ADD SWAP4 CODESIZE PUSH2 0xCB0 JUMP JUMPDEST DUP1 SLOAD DUP6 DUP6 ADD DUP8 ADD MSTORE SWAP3 DUP6 ADD SWAP3 DUP2 ADD PUSH2 0xCDD JUMP JUMPDEST PUSH1 0xFF NOT AND DUP7 DUP7 ADD MSTORE POP POP POP ISZERO ISZERO PUSH1 0x5 SHL DUP3 ADD ADD SWAP2 POP PUSH2 0xCC0 DUP2 PUSH2 0xCCC CODESIZE PUSH2 0xCB0 JUMP JUMPDEST ISZERO PUSH2 0xD36 JUMPI JUMP JUMPDEST PUSH1 0x40 MLOAD PUSH3 0x461BCD PUSH1 0xE5 SHL DUP2 MSTORE PUSH1 0x20 PUSH1 0x4 DUP3 ADD MSTORE PUSH1 0xA PUSH1 0x24 DUP3 ADD MSTORE PUSH10 0x6F776E6572206F6E6C79 PUSH1 0xB0 SHL PUSH1 0x44 DUP3 ADD MSTORE PUSH1 0x64 SWAP1 REVERT JUMPDEST ISZERO PUSH2 0xD6F JUMPI JUMP JUMPDEST PUSH1 0x40 MLOAD PUSH3 0x461BCD PUSH1 0xE5 SHL DUP2 MSTORE PUSH1 0x20 PUSH1 0x4 DUP3 ADD MSTORE PUSH1 0x11 PUSH1 0x24 DUP3 ADD MSTORE PUSH17 0x726F756E6420696E2070726F6772657373 PUSH1 0x78 SHL PUSH1 0x44 DUP3 ADD MSTORE PUSH1 0x64 SWAP1 REVERT JUMPDEST PUSH4 0x4E487B71 PUSH1 0xE0 SHL PUSH1 0x0 MSTORE PUSH1 0x11 PUSH1 0x4 MSTORE PUSH1 0x24 PUSH1 0x0 REVERT JUMPDEST DUP2 DUP2 MUL SWAP3 SWAP2 DUP2 ISZERO SWAP2 DUP5 DIV EQ OR ISZERO PUSH2 0xDD1 JUMPI JUMP JUMPDEST PUSH2 0xDA8 JUMP JUMPDEST DUP2 DUP2 LT PUSH2 0xDE1 JUMPI POP POP JUMP JUMPDEST PUSH1 0x0 DUP2 SSTORE PUSH1 0x1 ADD PUSH2 0xDD6 JUMP JUMPDEST PUSH1 0x9 SLOAD PUSH1 0x0 DUP1 PUSH1 0x9 SSTORE DUP2 PUSH2 0xDFF JUMPI POP POP JUMP JUMPDEST PUSH1 0x9 DUP2 MSTORE PUSH32 0x6E1540171B6C0C960B71A7020D9F60077F6AF931A8BBF590DA0223DACF75C7AF SWAP2 DUP3 ADD SWAP2 JUMPDEST DUP3 DUP2 LT PUSH2 0xE35 JUMPI POP POP POP JUMP JUMPDEST DUP1 PUSH2 0xE42 PUSH1 0x1 SWAP3 SLOAD PUSH2 0xB5B JUMP JUMPDEST DUP1 PUSH2 0xE4F JUMPI JUMPDEST POP ADD PUSH2 0xE29 JUMP JUMPDEST PUSH1 0x1F SWAP1 DUP2 DUP2 GT DUP5 EQ PUSH2 0xE67 JUMPI POP POP DUP3 DUP2 SSTORE JUMPDEST CODESIZE PUSH2 0xE48 JUMP JUMPDEST DUP4 PUSH2 0xE81 SWAP3 DUP5 DUP8 MSTORE PUSH1 0x20 DUP8 KECCAK256 SWAP3 ADD PUSH1 0x5 SHR DUP3 ADD SWAP2 ADD PUSH2 0xDD6 JUMP JUMPDEST PUSH1 0x0 DUP2 DUP2 MSTORE PUSH1 0x20 DUP2 KECCAK256 DUP2 DUP4 SSTORE SSTORE PUSH2 0xE61 JUMP JUMPDEST PUSH1 0x40 MLOAD SWAP1 PUSH1 0xA0 DUP3 ADD DUP3 DUP2 LT PUSH8 0xFFFFFFFFFFFFFFFF DUP3 GT OR PUSH2 0xBC7 JUMPI PUSH1 0x40 MSTORE JUMP JUMPDEST ISZERO PUSH2 0xEBA JUMPI JUMP JUMPDEST PUSH1 0x40 MLOAD PUSH3 0x461BCD PUSH1 0xE5 SHL DUP2 MSTORE PUSH1 0x20 PUSH1 0x4 DUP3 ADD MSTORE PUSH1 0x13 PUSH1 0x24 DUP3 ADD MSTORE PUSH19 0x6E6F7420696E20636F6D6D6974207068617365 PUSH1 0x68 SHL PUSH1 0x44 DUP3 ADD MSTORE PUSH1 0x64 SWAP1 REVERT JUMPDEST ISZERO PUSH2 0xEFC JUMPI JUMP JUMPDEST PUSH1 0x40 MLOAD PUSH3 0x461BCD PUSH1 0xE5 SHL DUP2 MSTORE PUSH1 0x20 PUSH1 0x4 DUP3 ADD MSTORE PUSH1 0xE PUSH1 0x24 DUP3 ADD MSTORE PUSH14 0x1CDD185AD9481C995C5D5A5C9959 PUSH1 0x92 SHL PUSH1 0x44 DUP3 ADD MSTORE PUSH1 0x64 SWAP1 REVERT JUMPDEST ISZERO PUSH2 0xF39 JUMPI JUMP JUMPDEST PUSH1 0x40 MLOAD PUSH3 0x461BCD PUSH1 0xE5 SHL DUP2 MSTORE PUSH1 0x20 PUSH1 0x4 DUP3 ADD MSTORE PUSH1 0xB PUSH1 0x24 DUP3 ADD MSTORE PUSH11 0x37B7363C90383630BCB2B9 PUSH1 0xA9 SHL PUSH1 0x44 DUP3 ADD MSTORE PUSH1 0x64 SWAP1 REVERT JUMPDEST ISZERO PUSH2 0xF73 JUMPI JUMP JUMPDEST PUSH1 0x40 MLOAD PUSH3 0x461BCD PUSH1 0xE5 SHL DUP2 MSTORE PUSH1 0x20 PUSH1 0x4 DUP3 ADD MSTORE PUSH1 0x11 PUSH1 0x24 DUP3 ADD MSTORE PUSH17 0x185B1C9958591E4818DBDB5B5A5D1D1959 PUSH1 0x7A SHL PUSH1 0x44 DUP3 ADD MSTORE PUSH1 0x64 SWAP1 REVERT JUMPDEST ISZERO PUSH2 0xFB3 JUMPI JUMP JUMPDEST PUSH1 0x40 MLOAD PUSH3 0x461BCD PUSH1 0xE5 SHL DUP2 MSTORE PUSH1 0x20 PUSH1 0x4 DUP3 ADD MSTORE PUSH1 0x19 PUSH1 0x24 DUP3 ADD MSTORE PUSH32 0x6E6F7420616363657074696E67207075626C697368206E6F7700000000000000 PUSH1 0x44 DUP3 ADD MSTORE PUSH1 0x64 SWAP1 REVERT JUMPDEST ISZERO PUSH2 0xFFF JUMPI JUMP JUMPDEST PUSH1 0x40 MLOAD PUSH3 0x461BCD PUSH1 0xE5 SHL DUP2 MSTORE PUSH1 0x20 PUSH1 0x4 DUP3 ADD MSTORE PUSH1 0x17 PUSH1 0x24 DUP3 ADD MSTORE PUSH32 0x616E7377657273206C656E677468206D69736D61746368000000000000000000 PUSH1 0x44 DUP3 ADD MSTORE PUSH1 0x64 SWAP1 REVERT JUMPDEST PUSH8 0xFFFFFFFFFFFFFFFF DUP2 GT PUSH2 0xBC7 JUMPI PUSH1 0x1F ADD PUSH1 0x1F NOT AND PUSH1 0x20 ADD SWAP1 JUMP JUMPDEST SWAP3 SWAP2 SWAP3 PUSH2 0x106C DUP3 PUSH2 0x1044 JUMP JUMPDEST SWAP2 PUSH2 0x107A PUSH1 0x40 MLOAD SWAP4 DUP5 PUSH2 0xBCC JUMP JUMPDEST DUP3 SWAP5 DUP2 DUP5 MSTORE DUP2 DUP4 ADD GT PUSH2 0x251 JUMPI DUP3 DUP2 PUSH1 0x20 SWAP4 DUP5 PUSH1 0x0 SWAP7 ADD CALLDATACOPY ADD ADD MSTORE JUMP JUMPDEST SWAP3 SWAP2 SWAP1 SWAP3 PUSH8 0xFFFFFFFFFFFFFFFF SWAP2 DUP3 DUP6 GT PUSH2 0xBC7 JUMPI DUP5 PUSH1 0x5 SHL PUSH1 0x40 MLOAD SWAP4 PUSH1 0x20 DUP1 SWAP6 PUSH2 0x10C4 DUP3 DUP6 ADD DUP3 PUSH2 0xBCC JUMP JUMPDEST DUP1 SWAP9 DUP2 MSTORE ADD SWAP2 DUP5 ADD SWAP4 DUP4 DUP6 GT PUSH2 0x251 JUMPI DUP1 SWAP3 JUMPDEST DUP6 DUP5 LT PUSH2 0x10E7 JUMPI POP POP POP POP POP POP POP JUMP JUMPDEST DUP4 CALLDATALOAD DUP4 DUP2 GT PUSH2 0x251 JUMPI DUP3 ADD DUP6 PUSH1 0x1F DUP3 ADD SLT ISZERO PUSH2 0x251 JUMPI DUP8 SWAP2 PUSH2 0x110F DUP8 DUP4 DUP6 DUP1 SWAP6 CALLDATALOAD SWAP2 ADD PUSH2 0x1060 JUMP JUMPDEST DUP2 MSTORE ADD SWAP4 ADD SWAP3 PUSH2 0x10D7 JUMP JUMPDEST SWAP1 PUSH2 0x112D PUSH1 0x20 SWAP3 DUP3 DUP2 MLOAD SWAP5 DUP6 SWAP3 ADD PUSH2 0xBEE JUMP JUMPDEST ADD SWAP1 JUMP JUMPDEST PUSH1 0x20 SWAP3 SWAP2 DUP2 MSTORE PUSH2 0x1149 DUP3 MLOAD DUP1 SWAP4 DUP6 DUP1 DUP6 ADD SWAP2 ADD PUSH2 0xBEE JUMP JUMPDEST ADD ADD SWAP1 JUMP JUMPDEST ISZERO PUSH2 0x1155 JUMPI JUMP JUMPDEST PUSH1 0x40 MLOAD PUSH3 0x461BCD PUSH1 0xE5 SHL DUP2 MSTORE PUSH1 0x20 PUSH1 0x4 DUP3 ADD MSTORE PUSH1 0x1B PUSH1 0x24 DUP3 ADD MSTORE PUSH32 0x696E76616C69642076616C696461746F72207369676E61747572650000000000 PUSH1 0x44 DUP3 ADD MSTORE PUSH1 0x64 SWAP1 REVERT JUMPDEST PUSH1 0x0 NOT DUP2 EQ PUSH2 0xDD1 JUMPI PUSH1 0x1 ADD SWAP1 JUMP JUMPDEST SWAP2 SWAP1 DUP2 LT ISZERO PUSH2 0xB40 JUMPI PUSH1 0x5 SHL DUP2 ADD CALLDATALOAD SWAP1 PUSH1 0x1E NOT DUP2 CALLDATASIZE SUB ADD DUP3 SLT ISZERO PUSH2 0x251 JUMPI ADD SWAP1 DUP2 CALLDATALOAD SWAP2 PUSH8 0xFFFFFFFFFFFFFFFF DUP4 GT PUSH2 0x251 JUMPI PUSH1 0x20 ADD DUP3 CALLDATASIZE SUB DUP2 SGT PUSH2 0x251 JUMPI SWAP2 SWAP1 JUMP JUMPDEST SWAP2 SWAP1 PUSH1 0x1F DUP2 GT PUSH2 0x11FA JUMPI POP POP POP JUMP JUMPDEST PUSH2 0x1226 SWAP3 PUSH1 0x0 MSTORE PUSH1 0x20 PUSH1 0x0 KECCAK256 SWAP1 PUSH1 0x20 PUSH1 0x1F DUP5 ADD PUSH1 0x5 SHR DUP4 ADD SWAP4 LT PUSH2 0x1228 JUMPI JUMPDEST PUSH1 0x1F ADD PUSH1 0x5 SHR ADD SWAP1 PUSH2 0xDD6 JUMP JUMPDEST JUMP JUMPDEST SWAP1 SWAP2 POP DUP2 SWAP1 PUSH2 0x1219 JUMP JUMPDEST SWAP1 PUSH1 0x9 SLOAD SWAP1 PUSH9 0x10000000000000000 DUP3 LT ISZERO PUSH2 0xBC7 JUMPI PUSH2 0x1259 PUSH1 0x1 SWAP3 DUP4 DUP2 ADD PUSH1 0x9 SSTORE PUSH2 0xB09 JUMP JUMPDEST SWAP4 SWAP1 SWAP4 PUSH2 0x1323 JUMPI PUSH8 0xFFFFFFFFFFFFFFFF DUP3 GT PUSH2 0xBC7 JUMPI PUSH2 0x1283 DUP3 PUSH2 0x127D DUP7 SLOAD PUSH2 0xB5B JUMP JUMPDEST DUP7 PUSH2 0x11EB JUMP JUMPDEST PUSH1 0x0 SWAP1 PUSH1 0x1F DUP4 GT PUSH1 0x1 EQ PUSH2 0x12BD JUMPI SWAP3 DUP3 SWAP4 SWAP2 DUP4 SWAP3 PUSH1 0x0 SWAP5 PUSH2 0x12B2 JUMPI JUMPDEST POP POP SHL SWAP2 PUSH1 0x0 NOT SWAP1 PUSH1 0x3 SHL SHR NOT AND OR SWAP1 SSTORE JUMP JUMPDEST ADD CALLDATALOAD SWAP3 POP CODESIZE DUP1 PUSH2 0x129F JUMP JUMPDEST PUSH1 0x1F NOT DUP4 AND SWAP2 DUP4 PUSH2 0x12D3 DUP8 PUSH1 0x0 MSTORE PUSH1 0x20 PUSH1 0x0 KECCAK256 SWAP1 JUMP JUMPDEST SWAP4 DUP3 JUMPDEST DUP8 DUP3 DUP3 LT PUSH2 0x130A JUMPI POP POP LT PUSH2 0x12F0 JUMPI JUMPDEST POP POP POP DUP2 SHL ADD SWAP1 SSTORE JUMP JUMPDEST ADD CALLDATALOAD PUSH1 0x0 NOT PUSH1 0x3 DUP5 SWAP1 SHL PUSH1 0xF8 AND SHR NOT AND SWAP1 SSTORE CODESIZE DUP1 DUP1 PUSH2 0x12E6 JUMP JUMPDEST DUP6 DUP6 ADD CALLDATALOAD DUP8 SSTORE SWAP1 SWAP6 ADD SWAP5 PUSH1 0x20 SWAP4 DUP5 ADD SWAP4 DUP8 SWAP4 POP ADD PUSH2 0x12D6 JUMP JUMPDEST PUSH2 0xB45 JUMP JUMPDEST ISZERO PUSH2 0x132F JUMPI JUMP JUMPDEST PUSH1 0x40 MLOAD PUSH3 0x461BCD PUSH1 0xE5 SHL DUP2 MSTORE PUSH1 0x20 PUSH1 0x4 DUP3 ADD MSTORE PUSH1 0x1D PUSH1 0x24 DUP3 ADD MSTORE PUSH32 0x636F727265637420616E7377657273206E6F74207075626C6973686564000000 PUSH1 0x44 DUP3 ADD MSTORE PUSH1 0x64 SWAP1 REVERT JUMPDEST ISZERO PUSH2 0x137B JUMPI JUMP JUMPDEST PUSH1 0x40 MLOAD PUSH3 0x461BCD PUSH1 0xE5 SHL DUP2 MSTORE PUSH1 0x20 PUSH1 0x4 DUP3 ADD MSTORE PUSH1 0x14 PUSH1 0x24 DUP3 ADD MSTORE PUSH20 0x1C1B185E595C88191A591B89DD0818DBDB5B5A5D PUSH1 0x62 SHL PUSH1 0x44 DUP3 ADD MSTORE PUSH1 0x64 SWAP1 REVERT JUMPDEST ISZERO PUSH2 0x13BE JUMPI JUMP JUMPDEST PUSH1 0x40 MLOAD PUSH3 0x461BCD PUSH1 0xE5 SHL DUP2 MSTORE PUSH1 0x20 PUSH1 0x4 DUP3 ADD MSTORE PUSH1 0x10 PUSH1 0x24 DUP3 ADD MSTORE PUSH16 0x185B1C9958591E481C995D99585B1959 PUSH1 0x82 SHL PUSH1 0x44 DUP3 ADD MSTORE PUSH1 0x64 SWAP1 REVERT JUMPDEST SWAP1 DUP1 SWAP3 SWAP2 DUP3 CALLDATACOPY ADD PUSH1 0x0 DUP2 MSTORE SWAP1 JUMP JUMPDEST ISZERO PUSH2 0x140B JUMPI JUMP JUMPDEST PUSH1 0x40 MLOAD PUSH3 0x461BCD PUSH1 0xE5 SHL DUP2 MSTORE PUSH1 0x20 PUSH1 0x4 DUP3 ADD MSTORE PUSH1 0xF PUSH1 0x24 DUP3 ADD MSTORE PUSH15 0xC6DEDADAD2E840DAD2E6DAC2E8C6D PUSH1 0x8B SHL PUSH1 0x44 DUP3 ADD MSTORE PUSH1 0x64 SWAP1 REVERT JUMPDEST SWAP1 PUSH1 0x40 MLOAD SWAP2 DUP3 PUSH1 0x0 DUP3 SLOAD SWAP3 PUSH2 0x1456 DUP5 PUSH2 0xB5B JUMP JUMPDEST SWAP1 DUP2 DUP5 MSTORE PUSH1 0x1 SWAP5 DUP6 DUP2 AND SWAP1 DUP2 PUSH1 0x0 EQ PUSH2 0x14C3 JUMPI POP PUSH1 0x1 EQ PUSH2 0x1480 JUMPI JUMPDEST POP POP PUSH2 0x1226 SWAP3 POP SUB DUP4 PUSH2 0xBCC JUMP JUMPDEST SWAP1 SWAP4 SWAP2 POP PUSH1 0x0 MSTORE PUSH1 0x20 SWAP1 DUP2 PUSH1 0x0 KECCAK256 SWAP4 PUSH1 0x0 SWAP2 JUMPDEST DUP2 DUP4 LT PUSH2 0x14AB JUMPI POP POP PUSH2 0x1226 SWAP4 POP DUP3 ADD ADD CODESIZE DUP1 PUSH2 0x1472 JUMP JUMPDEST DUP6 SLOAD DUP9 DUP5 ADD DUP6 ADD MSTORE SWAP5 DUP6 ADD SWAP5 DUP8 SWAP5 POP SWAP2 DUP4 ADD SWAP2 PUSH2 0x1493 JUMP JUMPDEST SWAP2 POP POP PUSH2 0x1226 SWAP5 POP PUSH1 0x20 SWAP3 POP PUSH1 0xFF NOT AND DUP3 DUP5 ADD MSTORE ISZERO ISZERO PUSH1 0x5 SHL DUP3 ADD ADD CODESIZE DUP1 PUSH2 0x1472 JUMP JUMPDEST DUP2 ISZERO PUSH2 0x14F0 JUMPI DIV SWAP1 JUMP JUMPDEST PUSH4 0x4E487B71 PUSH1 0xE0 SHL PUSH1 0x0 MSTORE PUSH1 0x12 PUSH1 0x4 MSTORE PUSH1 0x24 PUSH1 0x0 REVERT JUMPDEST SWAP2 SWAP1 DUP3 ADD DUP1 SWAP3 GT PUSH2 0xDD1 JUMPI JUMP JUMPDEST RETURNDATASIZE ISZERO PUSH2 0x153E JUMPI RETURNDATASIZE SWAP1 PUSH2 0x1524 DUP3 PUSH2 0x1044 JUMP JUMPDEST SWAP2 PUSH2 0x1532 PUSH1 0x40 MLOAD SWAP4 DUP5 PUSH2 0xBCC JUMP JUMPDEST DUP3 MSTORE RETURNDATASIZE PUSH1 0x0 PUSH1 0x20 DUP5 ADD RETURNDATACOPY JUMP JUMPDEST PUSH1 0x60 SWAP1 JUMP JUMPDEST ISZERO PUSH2 0x154A JUMPI JUMP JUMPDEST PUSH1 0x40 MLOAD PUSH3 0x461BCD PUSH1 0xE5 SHL DUP2 MSTORE PUSH1 0x20 PUSH1 0x4 DUP3 ADD MSTORE PUSH1 0xD PUSH1 0x24 DUP3 ADD MSTORE PUSH13 0x1C185E5BDD5D0819985A5B1959 PUSH1 0x9A SHL PUSH1 0x44 DUP3 ADD MSTORE PUSH1 0x64 SWAP1 REVERT JUMPDEST PUSH1 0x0 SWAP2 SWAP1 PUSH1 0x60 JUMPDEST DUP2 MLOAD DUP5 LT ISZERO PUSH2 0x15F5 JUMPI PUSH2 0x15EF SWAP1 PUSH2 0x15E9 PUSH1 0x21 PUSH1 0x20 SWAP3 DUP4 DUP9 PUSH1 0x5 SHL DUP8 ADD ADD MLOAD SWAP4 PUSH1 0x1F PUSH1 0xFA SHL PUSH1 0x40 MLOAD SWAP6 DUP4 PUSH2 0x15C2 DUP9 SWAP6 MLOAD DUP1 SWAP3 DUP7 DUP1 DUP10 ADD SWAP2 ADD PUSH2 0xBEE JUMP JUMPDEST DUP5 ADD PUSH2 0x15D6 DUP3 MLOAD DUP1 SWAP4 DUP7 DUP1 DUP6 ADD SWAP2 ADD PUSH2 0xBEE JUMP JUMPDEST ADD SWAP2 DUP3 ADD MSTORE SUB PUSH1 0x1 DUP2 ADD DUP5 MSTORE ADD DUP3 PUSH2 0xBCC JUMP JUMPDEST SWAP4 PUSH2 0x119A JUMP JUMPDEST SWAP3 PUSH2 0x1586 JUMP JUMPDEST SWAP3 POP POP JUMP JUMPDEST PUSH1 0xFF PUSH1 0x1B SWAP2 AND ADD SWAP1 PUSH1 0xFF DUP3 GT PUSH2 0xDD1 JUMPI JUMP JUMPDEST PUSH1 0x40 MLOAD RETURNDATASIZE PUSH1 0x0 DUP3 RETURNDATACOPY RETURNDATASIZE SWAP1 REVERT JUMPDEST PUSH1 0x40 MLOAD PUSH1 0x20 DUP2 ADD SWAP2 PUSH32 0x19457468657265756D205369676E6564204D6573736167653A0A333200000000 DUP4 MSTORE PUSH1 0x3C DUP3 ADD MSTORE PUSH1 0x3C DUP2 MSTORE PUSH2 0x1655 DUP2 PUSH2 0xBAB JUMP JUMPDEST MLOAD SWAP1 KECCAK256 PUSH1 0x41 DUP3 MLOAD SUB PUSH2 0x16DF JUMPI PUSH1 0x20 SWAP2 PUSH1 0x0 SWAP2 DUP3 SWAP2 DUP5 DUP2 ADD MLOAD SWAP3 PUSH1 0x60 PUSH1 0x40 DUP4 ADD MLOAD SWAP3 ADD MLOAD SWAP1 BYTE SWAP3 PUSH1 0x1B DUP5 LT PUSH2 0x16C8 JUMPI JUMPDEST SWAP1 PUSH2 0x16AF SWAP2 PUSH1 0x40 MLOAD SWAP5 DUP6 SWAP5 DUP6 SWAP1 SWAP5 SWAP4 SWAP3 PUSH1 0xFF PUSH1 0x60 SWAP4 PUSH1 0x80 DUP5 ADD SWAP8 DUP5 MSTORE AND PUSH1 0x20 DUP4 ADD MSTORE PUSH1 0x40 DUP3 ADD MSTORE ADD MSTORE JUMP JUMPDEST DUP4 DUP1 MSTORE SUB SWAP1 PUSH1 0x1 GAS STATICCALL ISZERO PUSH2 0x16C3 JUMPI PUSH1 0x0 MLOAD SWAP1 JUMP JUMPDEST PUSH2 0x160C JUMP JUMPDEST SWAP3 SWAP1 PUSH2 0x16D6 PUSH2 0x16AF SWAP3 PUSH2 0x15FA JUMP JUMPDEST SWAP4 SWAP1 SWAP2 POP PUSH2 0x1684 JUMP JUMPDEST PUSH1 0x40 MLOAD PUSH3 0x461BCD PUSH1 0xE5 SHL DUP2 MSTORE PUSH1 0x20 PUSH1 0x4 DUP3 ADD MSTORE PUSH1 0x12 PUSH1 0x24 DUP3 ADD MSTORE PUSH18 0xD2DCECC2D8D2C840E6D2CE40D8CADCCEE8D PUSH1 0x73 SHL PUSH1 0x44 DUP3 ADD MSTORE PUSH1 0x64 SWAP1 REVERT INVALID LOG2 PUSH5 0x6970667358 0x22 SLT KECCAK256 GASPRICE PUSH13 0x336AC588822A86DBCC3EBC235D EQ DUP4 SWAP5 0x23 0x28 PUSH14 0x3C2C392B2DA764F76A35C564736F PUSH13 0x63430008130033000000000000 "},"methodIdentifiers":{"commitPhase()":"cc5d6003","correctAnswers(uint256)":"cf2b277d","correctAnswersPublished()":"327a8c00","enterGame()":"218bd577","owner()":"8da5cb5b","player()":"48db5f89","playerAddress()":"a146bf7a","publishCorrectAnswers(string[],bytes)":"4239f41d","questionCount()":"1468aa2c","quizHash()":"c824b124","revealAnswers(string[],string)":"5e5ecbc1","revealPhase()":"6dba3ef1","setQuizHash(bytes32)":"7a67e548","startRevealPhase()":"c6fd5d4e","submitCommit(bytes32,uint32)":"0240743e","validator()":"3a5381b5","withdraw(address)":"51cff8d9"}}}}}