{
  "_format": "hh-sol-artifact-1",
  "contractName": "InfiniteQuizSingle",
  "sourceName": "contracts/InfiniteQuizSingle.sol",
  "abi": [
    {
      "inputs": [
        {
          "internalType": "address",
          "name": "_validator",
          "type": "address"
        }
      ],
      "stateMutability": "nonpayable",
      "type": "constructor"
    },
    {
      "anonymous": false,
      "inputs": [
        {
          "indexed": false,
          "internalType": "address",
          "name": "player",
          "type": "address"
        },
        {
          "indexed": false,
          "internalType": "bytes32",
          "name": "commitHash",
          "type": "bytes32"
        },
        {
          "indexed": false,
          "internalType": "uint32",
          "name": "timeTaken",
          "type": "uint32"
        }
      ],
      "name": "CommitSubmitted",
      "type": "event"
    },
    {
      "anonymous": false,
      "inputs": [
        {
          "indexed": false,
          "internalType": "address",
          "name": "publisher",
          "type": "address"
        }
      ],
      "name": "CorrectAnswersPublished",
      "type": "event"
    },
    {
      "anonymous": false,
      "inputs": [
        {
          "indexed": false,
          "internalType": "address",
          "name": "player",
          "type": "address"
        },
        {
          "indexed": false,
          "internalType": "uint256",
          "name": "stake",
          "type": "uint256"
        }
      ],
      "name": "PlayerEntered",
      "type": "event"
    },
    {
      "anonymous": false,
      "inputs": [
        {
          "indexed": false,
          "internalType": "address",
          "name": "player",
          "type": "address"
        },
        {
          "indexed": false,
          "internalType": "int256",
          "name": "score",
          "type": "int256"
        },
        {
          "indexed": false,
          "internalType": "uint256",
          "name": "reward",
          "type": "uint256"
        }
      ],
      "name": "PlayerRevealed",
      "type": "event"
    },
    {
      "anonymous": false,
      "inputs": [
        {
          "indexed": false,
          "internalType": "bytes32",
          "name": "quizHash",
          "type": "bytes32"
        }
      ],
      "name": "QuizHashSet",
      "type": "event"
    },
    {
      "anonymous": false,
      "inputs": [],
      "name": "RoundReset",
      "type": "event"
    },
    {
      "inputs": [],
      "name": "commitPhase",
      "outputs": [
        {
          "internalType": "bool",
          "name": "",
          "type": "bool"
        }
      ],
      "stateMutability": "view",
      "type": "function"
    },
    {
      "inputs": [
        {
          "internalType": "uint256",
          "name": "",
          "type": "uint256"
        }
      ],
      "name": "correctAnswers",
      "outputs": [
        {
          "internalType": "string",
          "name": "",
          "type": "string"
        }
      ],
      "stateMutability": "view",
      "type": "function"
    },
    {
      "inputs": [],
      "name": "correctAnswersPublished",
      "outputs": [
        {
          "internalType": "bool",
          "name": "",
          "type": "bool"
        }
      ],
      "stateMutability": "view",
      "type": "function"
    },
    {
      "inputs": [],
      "name": "enterGame",
      "outputs": [],
      "stateMutability": "payable",
      "type": "function"
    },
    {
      "inputs": [],
      "name": "owner",
      "outputs": [
        {
          "internalType": "address",
          "name": "",
          "type": "address"
        }
      ],
      "stateMutability": "view",
      "type": "function"
    },
    {
      "inputs": [],
      "name": "player",
      "outputs": [
        {
          "internalType": "bytes32",
          "name": "commitHash",
          "type": "bytes32"
        },
        {
          "internalType": "uint256",
          "name": "stake",
          "type": "uint256"
        },
        {
          "internalType": "uint32",
          "name": "timeTaken",
          "type": "uint32"
        },
        {
          "internalType": "bool",
          "name": "committed",
          "type": "bool"
        },
        {
          "internalType": "bool",
          "name": "revealed",
          "type": "bool"
        }
      ],
      "stateMutability": "view",
      "type": "function"
    },
    {
      "inputs": [],
      "name": "playerAddress",
      "outputs": [
        {
          "internalType": "address",
          "name": "",
          "type": "address"
        }
      ],
      "stateMutability": "view",
      "type": "function"
    },
    {
      "inputs": [
        {
          "internalType": "string[]",
          "name": "answers",
          "type": "string[]"
        },
        {
          "internalType": "bytes",
          "name": "signature",
          "type": "bytes"
        }
      ],
      "name": "publishCorrectAnswers",
      "outputs": [],
      "stateMutability": "nonpayable",
      "type": "function"
    },
    {
      "inputs": [],
      "name": "questionCount",
      "outputs": [
        {
          "internalType": "uint256",
          "name": "",
          "type": "uint256"
        }
      ],
      "stateMutability": "view",
      "type": "function"
    },
    {
      "inputs": [],
      "name": "quizHash",
      "outputs": [
        {
          "internalType": "bytes32",
          "name": "",
          "type": "bytes32"
        }
      ],
      "stateMutability": "view",
      "type": "function"
    },
    {
      "inputs": [
        {
          "internalType": "string[]",
          "name": "answers",
          "type": "string[]"
        },
        {
          "internalType": "string",
          "name": "salt",
          "type": "string"
        }
      ],
      "name": "revealAnswers",
      "outputs": [],
      "stateMutability": "nonpayable",
      "type": "function"
    },
    {
      "inputs": [],
      "name": "revealPhase",
      "outputs": [
        {
          "internalType": "bool",
          "name": "",
          "type": "bool"
        }
      ],
      "stateMutability": "view",
      "type": "function"
    },
    {
      "inputs": [
        {
          "internalType": "bytes32",
          "name": "_quizHash",
          "type": "bytes32"
        }
      ],
      "name": "setQuizHash",
      "outputs": [],
      "stateMutability": "nonpayable",
      "type": "function"
    },
    {
      "inputs": [],
      "name": "startRevealPhase",
      "outputs": [],
      "stateMutability": "nonpayable",
      "type": "function"
    },
    {
      "inputs": [
        {
          "internalType": "bytes32",
          "name": "commitHash",
          "type": "bytes32"
        },
        {
          "internalType": "uint32",
          "name": "_timeTaken",
          "type": "uint32"
        }
      ],
      "name": "submitCommit",
      "outputs": [],
      "stateMutability": "nonpayable",
      "type": "function"
    },
    {
      "inputs": [],
      "name": "validator",
      "outputs": [
        {
          "internalType": "address",
          "name": "",
          "type": "address"
        }
      ],
      "stateMutability": "view",
      "type": "function"
    },
    {
      "inputs": [
        {
          "internalType": "address payable",
          "name": "to",
          "type": "address"
        }
      ],
      "name": "withdraw",
      "outputs": [],
      "stateMutability": "nonpayable",
      "type": "function"
    },
    {
      "stateMutability": "payable",
      "type": "receive"
    }
  ],
  "bytecode": "0x60803461009457601f6117ff38819003918201601f19168301916001600160401b038311848410176100995780849260209460405283398101031261009457516001600160a01b0381169081900361009457600560045560018060a01b031933816000541617600055600154161760015561ffff196003541660035560ff19600a5416600a5560405161174f90816100b08239f35b600080fd5b634e487b7160e01b600052604160045260246000fdfe6080604052600436101561001b575b361561001957600080fd5b005b60003560e01c80630240743e1461012b5780631468aa2c14610126578063218bd57714610121578063327a8c001461011c5780633a5381b5146101175780634239f41d1461011257806348db5f891461010d57806351cff8d9146101085780635e5ecbc1146101035780636dba3ef1146100fe5780637a67e548146100f95780638da5cb5b146100f4578063a146bf7a146100ef578063c6fd5d4e146100ea578063c824b124146100e5578063cc5d6003146100e05763cf2b277d0361000e57610c3d565b610ad0565b610ab2565b610a21565b6109f8565b6109cf565b6108a1565b61087b565b61064c565b61059b565b61054b565b610407565b61035d565b61033a565b610274565b610256565b346102515760403660031901126102515760043560243563ffffffff81168103610251576008546001600160a01b0316610166338214610f32565b61017460ff60035416610eb3565b15610220577f717b60185b8967fe3550587e7df7b3d37b1ff032c33ce1ecaccbd7123733413c916101ba6101b56101b160075460ff9060201c1690565b1590565b610f6c565b6101c381600555565b6101dd8263ffffffff1663ffffffff196007541617600755565b6101f764010000000064ff00000000196007541617600755565b60408051338152602081019290925263ffffffff9092169181019190915280606081015b0390a1005b60405162461bcd60e51b8152602060048201526009602482015268373790383630bcb2b960b91b6044820152606490fd5b600080fd5b34610251576000366003190112610251576020600454604051908152f35b60003660031901126102515761028e60ff60035416610eb3565b6008546001600160a01b03166102fc576102a9341515610ef5565b600880546001600160a01b031916331790556102c434600655565b604080513381523460208201527fc16481c9484122696a660b57df0bf6839645c6b620cb1704ac2437de13be9225918190810161021b565b60405162461bcd60e51b81526020600482015260166024820152751c1b185e595c88185b1c9958591e48195b9d195c995960521b6044820152606490fd5b3461025157600036600319011261025157602060ff600a54166040519015158152f35b34610251576000366003190112610251576001546040516001600160a01b039091168152602090f35b6040600319820112610251576004359167ffffffffffffffff90818411610251578260238501121561025157836004013593828511610251578360248660051b830101116102515760240193926024359083821161025157806023830112156102515781600401359384116102515760248483010111610251576024019190565b34610251576104d36104ab61041b36610386565b600054929593946001600160a01b039390926104a59161043e9086163314610d2f565b61045261044d60035460ff1690565b610fac565b61045f6004548914610ff8565b60025461048c61049a61047b610476368d8d611097565b61157f565b604051928391602083019586611131565b03601f198101835282610bcc565b519020923691611060565b90611618565b6001549091906104cb906001600160a01b03165b6001600160a01b031690565b91161461114e565b6104db610ded565b60005b828110610529576104f7600160ff19600a541617600a55565b6040513381527fef6093bd6276610f3b7dd2581539270a708135b2a97215204ae676b5dd02078e90806020810161021b565b8061054161053b6105469386866111a9565b90611232565b61119a565b6104de565b346102515760003660031901126102515760a060055460ff60065460075490604051938452602084015263ffffffff81166040840152818160201c161515606084015260281c1615156080820152f35b34610251576020366003190112610251576004356001600160a01b0381811691829003610251576105d9906000808094819482948354163314610d2f565b6105f160035460ff811615908161063d575b50610d68565b47905af16105fd611513565b50156106065780f35b60405162461bcd60e51b815260206004820152600f60248201526e1dda5d1a191c985dc819985a5b1959608a1b6044820152606490fd5b60ff915060081c1615386105eb565b346102515761065a36610386565b9061067060018060a01b03600854163314610f32565b60ff60035460081c16156108405761069261068d600a5460ff1690565b611328565b610701600454926106a4848614610ff8565b600754926106c760ff6020956106bd8282891c16611374565b60281c16156113b7565b6106f56106d861047636898b611097565b9261048c6040519384926106ef898501809861111a565b916113f6565b51902060055414611404565b600092835b8181106107e4577f2ae1e4b3cf620e4186e23c6f546e97cbffd6f2e268daf7cd88118131e72bdbfb858560065490826107c1575b506107576501000000000065ff0000000000196007541617600755565b61076761ff001960035416600355565b6107976000808080856107876104bf6104bf60085460018060a01b031690565b5af1610791611513565b50611543565b600854604080516001600160a01b039092168252602082019390935291820152806060810161021b565b906107d86107de926107d38584610dbe565b6114e6565b90611506565b8361073a565b6107f96107f28284896111a9565b3691611060565b83815191012061081161080b83610b09565b50611442565b8481519101201461082b575b6108269061119a565b610706565b936108386108269161119a565b94905061081d565b60405162461bcd60e51b81526020600482015260136024820152726e6f7420696e2072657665616c20706861736560681b6044820152606490fd5b3461025157600036600319011261025157602060ff60035460081c166040519015158152f35b34610251576020366003190112610251576004357f1ccedde88bb07aec49db6bc29f93dddd0c58c9fa0181bbdaedcc4ce0e21c6d946109c96000926108f060018060a01b038554163314610d2f565b61090760035460ff811615908161063d5750610d68565b61091081600255565b610922600160ff196003541617600355565b61093160ff19600a5416600a55565b610939610ded565b6109a9610944610e93565b858152602080820187905260408201879052606082018790526080909101869052600586905560068690556007805465ffffffffffff191663ffffffff8816178715159283901b64ff00000000161760289290921b65ff000000000016919091179055565b600880546001600160a01b03191690556040519081529081906020820190565b0390a180f35b34610251576000366003190112610251576000546040516001600160a01b039091168152602090f35b34610251576000366003190112610251576008546040516001600160a01b039091168152602090f35b3461025157600080600319360112610aaf57610a4760018060a01b038254163314610d2f565b600354610a5660ff8216610eb3565b60ff60075460201c1615610a735761ffff19166101001760035580f35b60405162461bcd60e51b81526020600482015260146024820152731c1b185e595c881b9bdd0818dbdb5b5a5d1d195960621b6044820152606490fd5b80fd5b34610251576000366003190112610251576020600254604051908152f35b3461025157600036600319011261025157602060ff600354166040519015158152f35b634e487b7160e01b600052603260045260246000fd5b600954811015610b405760096000527f6e1540171b6c0c960b71a7020d9f60077f6af931a8bbf590da0223dacf75c7af0190600090565b610af3565b634e487b7160e01b600052600060045260246000fd5b90600182811c92168015610b8b575b6020831014610b7557565b634e487b7160e01b600052602260045260246000fd5b91607f1691610b6a565b634e487b7160e01b600052604160045260246000fd5b6060810190811067ffffffffffffffff821117610bc757604052565b610b95565b90601f8019910116810190811067ffffffffffffffff821117610bc757604052565b60005b838110610c015750506000910152565b8181015183820152602001610bf1565b60409160208252610c318151809281602086015260208686019101610bee565b601f01601f1916010190565b3461025157602080600319360112610251576004356009548110156102515760096000527f6e1540171b6c0c960b71a7020d9f60077f6af931a8bbf590da0223dacf75c7af0190604051906000928054610c9681610b5b565b80855291600191808316908115610d0d5750600114610cd0575b610ccc85610cc081890382610bcc565b60405191829182610c11565b0390f35b6000908152838120939550925b828410610cfa5750505081610ccc93610cc0928201019338610cb0565b8054858501870152928501928101610cdd565b60ff191686860152505050151560051b8201019150610cc081610ccc38610cb0565b15610d3657565b60405162461bcd60e51b815260206004820152600a6024820152696f776e6572206f6e6c7960b01b6044820152606490fd5b15610d6f57565b60405162461bcd60e51b8152602060048201526011602482015270726f756e6420696e2070726f677265737360781b6044820152606490fd5b634e487b7160e01b600052601160045260246000fd5b81810292918115918404141715610dd157565b610da8565b818110610de1575050565b60008155600101610dd6565b60095460008060095581610dff575050565b600981527f6e1540171b6c0c960b71a7020d9f60077f6af931a8bbf590da0223dacf75c7af918201915b828110610e3557505050565b80610e4260019254610b5b565b80610e4f575b5001610e29565b601f908181118414610e675750508281555b38610e48565b83610e819284875260208720920160051c82019101610dd6565b60008181526020812081835555610e61565b6040519060a0820182811067ffffffffffffffff821117610bc757604052565b15610eba57565b60405162461bcd60e51b81526020600482015260136024820152726e6f7420696e20636f6d6d697420706861736560681b6044820152606490fd5b15610efc57565b60405162461bcd60e51b815260206004820152600e60248201526d1cdd185ad9481c995c5d5a5c995960921b6044820152606490fd5b15610f3957565b60405162461bcd60e51b815260206004820152600b60248201526a37b7363c90383630bcb2b960a91b6044820152606490fd5b15610f7357565b60405162461bcd60e51b8152602060048201526011602482015270185b1c9958591e4818dbdb5b5a5d1d1959607a1b6044820152606490fd5b15610fb357565b60405162461bcd60e51b815260206004820152601960248201527f6e6f7420616363657074696e67207075626c697368206e6f77000000000000006044820152606490fd5b15610fff57565b60405162461bcd60e51b815260206004820152601760248201527f616e7377657273206c656e677468206d69736d617463680000000000000000006044820152606490fd5b67ffffffffffffffff8111610bc757601f01601f191660200190565b92919261106c82611044565b9161107a6040519384610bcc565b829481845281830111610251578281602093846000960137010152565b9291909267ffffffffffffffff91828511610bc7578460051b60405193602080956110c482850182610bcc565b8098815201918401938385116102515780925b8584106110e75750505050505050565b833583811161025157820185601f8201121561025157879161110f8783858095359101611060565b8152019301926110d7565b9061112d60209282815194859201610bee565b0190565b60209291815261114982518093858085019101610bee565b010190565b1561115557565b60405162461bcd60e51b815260206004820152601b60248201527f696e76616c69642076616c696461746f72207369676e617475726500000000006044820152606490fd5b6000198114610dd15760010190565b9190811015610b405760051b81013590601e198136030182121561025157019081359167ffffffffffffffff8311610251576020018236038113610251579190565b9190601f81116111fa57505050565b611226926000526020600020906020601f840160051c83019310611228575b601f0160051c0190610dd6565b565b9091508190611219565b906009549068010000000000000000821015610bc757611259600192838101600955610b09565b9390936113235767ffffffffffffffff8211610bc7576112838261127d8654610b5b565b866111eb565b600090601f83116001146112bd579282939183926000946112b2575b50501b916000199060031b1c1916179055565b01359250388061129f565b601f19831691836112d387600052602060002090565b93825b8782821061130a575050106112f0575b505050811b019055565b0135600019600384901b60f8161c191690553880806112e6565b85850135875590950194602093840193879350016112d6565b610b45565b1561132f57565b60405162461bcd60e51b815260206004820152601d60248201527f636f727265637420616e7377657273206e6f74207075626c69736865640000006044820152606490fd5b1561137b57565b60405162461bcd60e51b81526020600482015260146024820152731c1b185e595c88191a591b89dd0818dbdb5b5a5d60621b6044820152606490fd5b156113be57565b60405162461bcd60e51b815260206004820152601060248201526f185b1c9958591e481c995d99585b195960821b6044820152606490fd5b908092918237016000815290565b1561140b57565b60405162461bcd60e51b815260206004820152600f60248201526e0c6dedadad2e840dad2e6dac2e8c6d608b1b6044820152606490fd5b906040519182600082549261145684610b5b565b9081845260019485811690816000146114c35750600114611480575b505061122692500383610bcc565b9093915060005260209081600020936000915b8183106114ab57505061122693508201013880611472565b85548884018501529485019487945091830191611493565b91505061122694506020925060ff191682840152151560051b8201013880611472565b81156114f0570490565b634e487b7160e01b600052601260045260246000fd5b91908201809211610dd157565b3d1561153e573d9061152482611044565b916115326040519384610bcc565b82523d6000602084013e565b606090565b1561154a57565b60405162461bcd60e51b815260206004820152600d60248201526c1c185e5bdd5d0819985a5b1959609a1b6044820152606490fd5b6000919060605b81518410156115f5576115ef906115e96021602092838860051b8701015193601f60fa1b60405195836115c28895518092868089019101610bee565b84016115d682518093868085019101610bee565b0191820152036001810184520182610bcc565b9361119a565b92611586565b925050565b60ff601b9116019060ff8211610dd157565b6040513d6000823e3d90fd5b60405160208101917f19457468657265756d205369676e6564204d6573736167653a0a3332000000008352603c820152603c815261165581610bab565b51902060418251036116df576020916000918291848101519260606040830151920151901a92601b84106116c8575b906116af91604051948594859094939260ff6060936080840197845216602083015260408201520152565b838052039060015afa156116c35760005190565b61160c565b92906116d66116af926115fa565b93909150611684565b60405162461bcd60e51b81526020600482015260126024820152710d2dcecc2d8d2c840e6d2ce40d8cadccee8d60731b6044820152606490fdfea26469706673582212203a6c336ac588822a86dbcc3ebc235d14839423286d3c2c392b2da764f76a35c564736f6c63430008130033",
  "linkReferences": {},
  "deployedLinkReferences": {}
}